:020000040800F2
:10000000E00A0020D114000861050008630500081B
:10001000670500086B0500086F0500080000000078
:100020000000000000000000000000007305000850
:100030007505000800000000770500087905000834
:10004000EB140008EB140008EB140008EB14000894
:10005000EB140008EB140008EB140008EB14000884
:10006000EB140008EB140008EB140008EB14000874
:10007000EB140008EB140008EB140008EB14000864
:10008000EB140008EB140008EB140008EB14000854
:10009000EB140008EB140008EB140008EB14000844
:1000A000EB140008EB140008EB140008EB14000834
:1000B000EB140008E7110008EB140008EB1400082B
:1000C000EB140008EB140008EB140008EB14000814
:1000D000EB140008EB130008EB140008EB14000805
:1000E000EB140008EB140008EB140008EB140008F4
:1000F000EB140008EB140008EB140008EB140008E4
:10010000EB140008EB140008EB140008EB140008D3
:10011000EB140008EB140008EB140008EB140008C3
:10012000EB140008EB140008EB140008EB140008B3
:1001300000F002F800F063F80AA090E8000C824496
:100140008344AAF10107DA4501D100F058F8AFF273
:10015000090EBAE80F0013F0010F18BFFB1A43F0A5
:1001600001031847F03700001038000010F8013B79
:100170000A4413F0030408BF10F8014B1D1108BF17
:1001800010F8015B641E05D010F8016B641E01F8C5
:10019000016BF9D1002D15D010F8014B03F00C03C1
:1001A0000C2BA1EB04040ABF10F8013BA4EB831451
:1001B000A4EB032405F1010314F8016B5B1E01F8A5
:1001C000016BF9D5914238BF10F8013BD1D370478C
:1001D0000023002400250026103A28BF78C1FBD850
:1001E000520728BF30C148BF0B607047732902F027
:1001F0004087002070471FB51FBD10B510BD02F02D
:100200006BFF1146FFF7F7FF00F008F802F089FFD7
:1002100003B4FFF7F2FF03BC01F08CF888B00020B4
:1002200007901422ACA102A802F0DBFE01F018F83E
:1002300000F094FA41F61F41132000F0A7FF4FF49D
:10024000E13001F086F800F0B1FA00F021FF00F093
:1002500054FD00BF00F051FD0020A4490870A449DE
:100260000870A44908700FE00823A3A20121002010
:1002700000F01DFEA3A002F04BFE00209B49087079
:100280009B4908709B490870A44800780028EBD06F
:1002900000F033FD28E00423A1A20121002000F09A
:1002A00006FE9248007828B104239FA2022106206E
:1002B00000F0FDFD8E48007878B104239AA2022157
:1002C000062000F0F4FD04239BA20321062000F089
:1002D000EEFDC82001F001F807E09048007810B169
:1002E0008448007800B1B5E7D5E700BF00F005FD10
:1002F000002095490870EDE002A800F0B5FA02A9C7
:1003000092A002F005FE9DF81C0008B900F0F5FC73
:1003100001208DF81C0000208DF81D000F238DA2F8
:1003200001211E2000F0C3FD0820012300908B480E
:10033000027819464F2000F076FD082000909DF8C5
:100340001800A0F13002012319460F2000F06BFDC8
:10035000082000909DF81900A0F1300201231946F1
:10036000732000F060FD082000909DF80800A0F1C7
:100370003002012302210A2000F055FD08200090E0
:100380009DF80900A0F1300201230221192000F09C
:100390004AFD082000909DF80A00A0F130020123D8
:1003A0000221282000F03FFD082000909DF80B005E
:1003B000A0F1300201230221372000F034FD082093
:1003C00000909DF80C00A0F130020123022146208C
:1003D00000F029FD082000909DF80D00A0F13002EA
:1003E00001230221552000F01EFD082000909DF8F9
:1003F0000E00A0F1300201230221642000F013FD61
:10040000082000909DF80F00A0F130020123022186
:10041000732000F008FD082000909DF81000A0F166
:100420003002012303210A2000F0FDFC0820009087
:100430009DF81100A0F1300201230321192000F0E2
:10044000F2FC082000909DF81200A0F13002012378
:100450000321282000F0E7FC082000909DF81300FD
:10046000A0F1300201230321372000F0DCFC08203A
:1004700000909DF81400A0F13002012303214620D2
:1004800000F0D1FC082000909DF81500A0F130028A
:1004900001230321552000F0C6FC082000909DF8A0
:1004A0001600A0F1300201230321642000F0BBFC00
:1004B000082000909DF81700A0F1300201230321CD
:1004C000732000F0B0FC1548007810B1094800789E
:1004D00000B1BFE610E7000030303030303030304F
:1004E00030303030303030303030000067040020A1
:1004F00068040020640400204C696E6B696E672EEE
:100500002E2E000073717171717171717171717141
:1005100071717171717171650000000063040020D8
:10052000696E69743A0000006469616E6A695F69A6
:100530006E672E2E2E00000064696E677765695F16
:10054000696E672E2E2E00006504002073257365EA
:100550000D0A0000766964656F3A000066040020A9
:10056000704700BFFEE700BFFEE700BFFEE700BF29
:10057000FEE7704770477047704700000CB50020D9
:10058000019000906C48006840F480306A4908602F
:1005900000BF6948006800F4003000900198401CDA
:1005A0000190009818B90198B0F5A06FF1D1624898
:1005B000006800F4003010B10120009001E000203C
:1005C00000900098012843D15C48006840F010007A
:1005D0005A4908600846006820F003000860084691
:1005E000006840F002000860534840685249486083
:1005F0000846406848600846406840F480604860AB
:100600000846406820F47C1048600846406840F482
:10061000E81048600846006840F08070086000BF3D
:100620004548006800F000700028F9D04248406852
:1006300020F00300404948600846406840F002004E
:10064000486000BF3C48406800F00C000828F9D121
:100650000CBD10B5FFF792FF10BD10B5364800680D
:1006600040F00100344908600846406834490840B9
:100670003149486008460068324908402E49086000
:100680000846006820F4802008600846406820F48E
:10069000FE0048604FF41F008860FFF7DAFF4FF05C
:1006A00000602949086010BD10B50021002000221B
:1006B000214B5B6803F00C0121B1042906D0082905
:1006C00028D107E0214B224C236027E01F4B204C10
:1006D000236023E0184B5B6803F47010164B5B68D3
:1006E00003F48032022303EB904022B9194B4343B9
:1006F000174C23600DE0104B5B6803F4003323B10B
:10070000144B4343124C236003E0104B4343104C03
:10071000236003E00D4B0E4C236000BF00BF064B6F
:100720005B68C3F303130C4CE15C094B1B68CB40C3
:10073000074C236010BD0000001002400020024062
:100740000000FFF8FFFFF6FE08ED00E000127A005F
:100750000000002000093D000400002008B5012130
:10076000242001F0F1F94FF48070ADF80000102062
:100770008DF8030003208DF802006946094800F057
:1007800027FF4FF48071074800F0CFFF0420ADF839
:1007900000006946044800F01BFF0421024800F0F5
:1007A000C4FF08BD000801400014014008B5012144
:1007B0001D2001F0C9F90121CA4800F0DAFF042028
:1007C000ADF8000048208DF803006946C64800F0E7
:1007D000FFFE0420ADF8000048208DF803006946B4
:1007E000C24800F0F5FE0820ADF8000010208DF89A
:1007F000030003208DF802006946BD4800F0E8FEC2
:100800001020ADF800006946B94800F0E1FE202054
:10081000ADF800006946B64800F0DAFE4020ADF8B9
:1008200000006946B24800F0D3FE8020ADF8000019
:100830006946AF4800F0CCFE4FF48070ADF8000080
:100840006946AB4800F0C4FE4FF40070ADF80000FC
:100850006946A74800F0BCFE0220ADF800006946DA
:10086000A34800F0B5FE08BD10B504463020E07383
:10087000A07360732073E072A07260722072E071E6
:10088000A07160712071E070A07060702070002015
:1008900098490860091F0860091F086095491039C8
:1008A00008600120934910310860091F0860091F82
:1008B00008609149C1F8980102218D4800F01BFFA2
:1008C00000283AD0142000F008FD01208949086072
:1008D000091F0860091F0860864910390860002058
:1008E000844910310860091F0860091F08608249A7
:1008F000C1F8980140217E4800F0FDFE10B1312082
:100900002070D9E080217A4800F0F5FE10B1312046
:100910002071D1E04FF48071754800F0ECFE10B109
:1009200031202072C8E04FF40071714800F0E3FEFE
:100930000028E6D031202073BEE008216C4800F08A
:10094000DAFE80B3142000F0C8FC01206949086079
:10095000091F0860091F08606649103908600020F7
:10096000644910310860091F0860091F0860624966
:10097000C1F8980140215E4800F0BDFE10B1312061
:10098000607099E080215A4800F0B5FE10B1312026
:10099000607191E04FF48071554800F0ACFE18B1E1
:1009A0003120607288E009E04FF40071504800F097
:1009B000A2FE0028A5D0312060737DE010214C48B4
:1009C00000F099FE80B3142000F087FC0120494913
:1009D0000860091F0860091F08604649103908604F
:1009E0000020444910310860091F0860091F086091
:1009F0004149C1F8980140213D4800F07CFE10B10A
:100A00003120A07058E08021394800F074FE10B108
:100A10003120A07150E04FF48071354800F06BFE3A
:100A200018B13120A07247E008E04FF4007130485F
:100A300000F061FE30B33120A0733DE020212C484E
:100A400000F059FEF0B1142000F047FC01202949C4
:100A50000860091F0860091F0860264910390860EE
:100A60000020244910310860091F0860091F086030
:100A70002149C1F8980140211D4800F03CFE10B109
:100A80003120E07018E08021194800F034FE10B1E8
:100A90003120E07110E04FF48071154800F02BFE1A
:100AA00010B13120E07207E04FF40071104800F0FF
:100AB00022FE08B13120E07304210C4800F01BFE37
:100AC00010B93120207401E0302020740421064840
:100AD00000F011FE10B93120607401E03020607424
:100AE00010BD00000002300000080140001001406D
:100AF000000C0140948121420080214210B54FF446
:100B00008061F94800F011FE4FF40061F64800F0F2
:100B10000CFE4FF40061F44800F009FE4FF48061D0
:100B2000F14800F004FE10BD10B54FF48061EE48AE
:100B300000F0FBFD4FF40061EB4800F0F8FD4FF4CE
:100B40000061E94800F0F1FD10BD10B54FF480617F
:100B5000E54800F0EAFD4FF48061E34800F0E7FD6E
:100B600010BD2DE9F04105462C464FF48061DE486A
:100B700000F0DDFD00261CE0274607F08007802FEF
:100B800004D13901D84800F0D0FD04E04FF40061F1
:100B9000D54800F0CCFD6006040E4FF48061D248C9
:100BA00000F0C3FD4FF48061CF4800F0C0FD701C21
:100BB000C6B2082EE0DBBDE8F08110B50446FFF7B1
:100BC0009DFF7820FFF7CDFFFFF7BFFF0020FFF765
:100BD000C8FFFFF7BAFF2046FFF7C3FFFFF7B5FFD7
:100BE000FFF7A2FF10BD10B50446FFF787FF78207E
:100BF000FFF7B7FFFFF7A9FF4020FFF7B2FFFFF7AE
:100C0000A4FF2046FFF7ADFFFFF79FFFFFF78CFF24
:100C100010BD70B504460D461DB1E0B2FFF7E3FF0D
:100C200002E0E0B2FFF7C9FF70BD70B506460024D0
:100C300018E004F1B0000021FFF7EBFF00210846A7
:100C4000FFF7E7FF00211020FFF7E3FF002505E095
:100C500001213046FFF7DDFF681CC5B2802DF7DBB0
:100C6000601CC4B2082CE4DB70BD06E041F66501EF
:100C700000E0491E0029FCD1401E0028F6D1704733
:100C8000014605E0002001E0421CD0B27B28FBDBDE
:100C90000A1EA1F10101F5D1704770B504460D4659
:100CA00005F1B0000021FFF7B4FF102141EA141054
:100CB0000021FFF7AEFF04F00F000021FFF7A9FFAE
:100CC00070BD10B500218D20FFF7A3FF0021142077
:100CD000FFF79FFF0021AF20FFF79BFF10BD10B56E
:100CE00000218D20FFF795FF00211020FFF791FFD5
:100CF0000021AE20FFF78DFF10BD70B5002418E075
:100D000004F1B0000021FFF784FF00210846FFF73F
:100D100080FF00211020FFF77CFF002505E0012166
:100D20000020FFF776FF681CC5B2802DF7DB601C42
:100D3000C4B2082CE4DB70BD70B5002418E004F1E7
:100D4000B0000021FFF765FF00210846FFF761FFB3
:100D500000211020FFF75DFF002505E00121084676
:100D6000FFF757FF681CC5B2802DF7DB601CC4B2CB
:100D7000082CE4DB70BD2DE9F04707460E4690468F
:100D8000994600250024A8F12000C5B27F2F02DD7E
:100D90000027B01CC6B2B9F1100F24D13146384635
:100DA000FFF77BFF002408E004EB05114F4A505C7D
:100DB0000121FFF72EFF601CC4B2082CF4DB701C6D
:100DC000C1B23846FFF769FF002409E004EB0511C2
:100DD0000831464A505C0121FFF71BFF601CC4B27A
:100DE000082CF3DB12E031463846FFF756FF0024AB
:100DF0000AE005EB45013E4A02EB4101085D012195
:100E0000FFF707FF601CC4B2062CF2DBBDE8F087D9
:100E100010B50246012000E050430B1EA1F1010471
:100E2000E1B2F9D110BD2DE9FF5F074691461E469C
:100E30000E9D4FF0000A002435E0301B401EC1B269
:100E40000A20FFF7E5FFB9FBF0F00A21B0FBF1F251
:100E500001FB1208BAF1000F14D1701EA04211DD7F
:100E6000B8F1000F0CD1AB4605EBDB71491001FB6B
:100E70000471C8B22B4620220199FFF77CFF10E0D5
:100E80004FF0010AAB4605EBDB71491001FB047121
:100E9000C8B208F13001CAB22B460199FFF76BFFC7
:100EA00000BF601CC4B2B442C7DBBDE8FF9F2DE9A0
:100EB000F04104460F461546984600260FE0AA5D0D
:100EC000434639462046FFF756FF04F10800C4B2F6
:100ED000782C02DD0024B81CC7B2701CC6B2A85D15
:100EE0000028ECD1BDE8F081000C0140643300081B
:100EF0003C3100082DE9F04180460E46154600279A
:100F000031464046FFF7C9FE00240AE09B4A02EB47
:100F10008511085D0121FFF77CFE781CC7B2601CBB
:100F2000C4B2102CF2DB701CC1B24046FFF7B5FE14
:100F300000240CE06900491C904A02EB4111085D55
:100F40000121FFF766FE781CC7B2601CC4B2102CEA
:100F5000F0DBBDE8F0812DE9F04180460E461546F4
:100F6000002731464046FFF798FE00240AE0844AF5
:100F700002EB8511085D0121FFF74BFE781CC7B21B
:100F8000601CC4B2102CF2DB701CC1B24046FFF7EB
:100F900084FE00240CE06900491C794A02EB4111EF
:100FA000085D0121FFF735FE781CC7B2601CC4B292
:100FB000102CF0DBBDE8F0812DE9F04180460E46B3
:100FC0001546002731464046FFF767FE00240AE039
:100FD0006C4A02EB8511085D0121FFF71AFE781CAF
:100FE000C7B2601CC4B2102CF2DB701CC1B2404608
:100FF000FFF753FE00240CE06900491C614A02EB34
:101000004111085D0121FFF704FE781CC7B2601C86
:10101000C4B2102CF0DBBDE8F0812DE9F05F06468C
:101020000F4690461C46DDF828A04FF0000BE11754
:1010300004EB5171C910A4EBC10131B92046E1178D
:1010400004EB5171C1F3C70506E02046E11704EB3C
:101050005171C910491CCDB23D4615E029463046B4
:10106000FFF71BFEB1460BE059460BF1010B1AF8D6
:1010700001000121FFF7CDFD09F1010000F0FF099A
:10108000C145F1DB681CC5B2A542E7DBBDE8F09FB6
:1010900008B501214FF4947000F056FD4FF4406004
:1010A000ADF8000010208DF8030003208DF8020039
:1010B0006946354800F08CFAC82000F00EF900218E
:1010C000AE20FFF7A6FD00214020FFF7A2FD002182
:1010D000B020FFF79EFD0021C820FFF79AFD0021F8
:1010E0008120FFF796FD0021FF20FFF792FD0021F0
:1010F000A120FFF78EFD0021A620FFF78AFD002129
:10110000A820FFF786FD00211F20FFF782FD0021A8
:10111000D320FFF77EFD00210846FFF77AFD00216E
:10112000D520FFF776FD0021F020FFF772FD0021AA
:10113000D920FFF76EFD00212220FFF76AFD002174
:10114000DA20FFF766FD00210220FFF762FD002193
:10115000DB20FFF75EFD00214920FFF75AFD00214B
:101160008D20FFF756FD00211420FFF752FD0021CE
:10117000AF20FFF74EFDFFF7C0FD08BD14000020B3
:1011800054020020D4030020000C01407FB5054626
:101190000C460121022000F0E4FCADF80850ADF847
:1011A00004400020ADF80A00ADF8060001A9264869
:1011B00001F074F801221146234801F0E6FB1D20DE
:1011C0008DF8000000208DF8010003208DF802004A
:1011D00001208DF80300684600F023FF01211A4822
:1011E00001F0B8FB7FBD10B50121174801F07BFE6F
:1011F00040B30121144801F087FE14480078401CD8
:101200001249087012480078401C114908701148B2
:101210000078401C0F4908700C480078FA2802D169
:1012200000200D4908700A480078FA280AD10B48B6
:10123000006808B9012000E000200849086000208B
:101240000349087010BD0000000400405404002051
:10125000550400205604002063040020A001214210
:1012600010B56FF0040000F026FF2E4800682E49EC
:10127000B0FBF1F02D4908700846007800EB400102
:10128000C1EBC0104FF6FF7101EAC0002849088089
:1012900010BD0146254A12784A434FF0E0235A61B7
:1012A00000229A611A46126942F001021A6100BFD7
:1012B0004FF0E022106900F001021AB100F4803210
:1012C000002AF5D04FF0E022126922F001024FF01F
:1012D000E0231A6100229A6170470146144A12887D
:1012E0004A434FF0E0235A6100229A611A4612697C
:1012F00042F001021A6100BF4FF0E022106900F0D5
:1013000001021AB100F48032002AF5D04FF0E02239
:10131000126922F001024FF0E0231A6100229A6163
:10132000704700000000002000127A0058040020DE
:101330005A040020014600BF704700BF5C4A128873
:1013400002F04002002AF9D0C2B2594B1B1D1A808C
:10135000704710B586B00446012144F2040000F045
:10136000F3FB4FF40070ADF8140003208DF8160065
:1013700018208DF8170005A94E4800F029F94FF400
:101380008060ADF8140004208DF8170005A94948C5
:1013900000F01EF925208DF8000003208DF80100D3
:1013A0008DF8020001208DF80300684600F039FE38
:1013B00001940020ADF80800ADF80A00ADF80C006B
:1013C000ADF810000C20ADF80E0001A9384800F06F
:1013D00062FC012240F22551354800F0F4FC012165
:1013E000334800F0E4FC06B010BD10B5304800F002
:1013F0004FFD69280CD101202F4908702F49087032
:101400002F49087000202F49087007202E490870C6
:10141000274800F03DFD30280BD1012026490870F7
:101420002649087026490870002026490870264978
:1014300008701F4800F02CFD31280CD101201E49F6
:1014400008701E4908701E49087000201D49087068
:1014500001201D490870164800F01AFD32280CD1F1
:1014600001201549087015490870154908700020B9
:10147000144908700220144908700D4800F008FD56
:1014800033280CD101200C4908700C4908700C4914
:10149000087000200B49087003200B4908700448AD
:1014A00000F0F6FC702802D101200849087010BD38
:1014B0000038014000080140630400206704002058
:1014C0006804002054040020660400206404002006
:1014D0000948804709480047FEE7FEE7FEE7FEE7C8
:1014E000FEE7FEE7FEE7FEE7FEE7FEE70448054904
:1014F000054A064B704700005B06000831010008F2
:10150000E0040020E00A0020E0060020E0060020C1
:1015100010B50446CC48844208D10121042000F0D3
:101520002DFB0021042000F029FB46E0C74884423F
:1015300008D10121082000F021FB0021082000F043
:101540001DFB3AE0C248844208D10121102000F07E
:1015500015FB0021102000F011FB2EE0BD48844255
:1015600008D10121202000F009FB0021202000F0FB
:1015700005FB22E0B848844208D10121402000F058
:10158000FDFA0021402000F0F9FA16E0B348844249
:1015900008D10121802000F0F1FA0021802000F024
:1015A000EDFA0AE0AE48844207D10121801500F02F
:1015B000E5FA0021A01500F0E1FA10BD10B50121F7
:1015C000084600F0DBFA0021012000F0D7FA10BD38
:1015D0002DE9F041024600250026002000230024CA
:1015E000002791F803C00CF00F0591F803C00CF030
:1015F000100CBCF1000F03D091F802C04CEA0505B5
:1016000091F800C0BCF1000F31D0146800202BE02D
:101610004FF0010C0CFA00F3B1F800C00CEA03061D
:101620009E4220D183004FF00F0C0CFA03F7BC430D
:1016300005FA03FC4CEA040491F803C0BCF1280F3E
:1016400006D14FF0010C0CFA00FCC2F814C00AE0FD
:1016500091F803C0BCF1480F05D14FF0010C0CFA12
:1016600000FCC2F810C0401C0828D1D31460B1F8A7
:1016700000C0BCF1FF0F34DD546800202EE000F103
:10168000080C4FF0010808FA0CF3B1F800C00CEA9E
:1016900003069E4221D183004FF00F0C0CFA03F792
:1016A000BC4305FA03FC4CEA040491F803C0BCF106
:1016B000280F05D100F1080C08FA0CF8C2F81480C4
:1016C00091F803C0BCF1480F07D100F1080C4FF0AE
:1016D000010808FA0CF8C2F81080401C0828CED384
:1016E0005460BDE8F0814FF6FF71018002218170E6
:1016F0000421C17070470246002093680B400BB173
:10170000012000E0002070470146886880B27047E1
:1017100002460020D3680B400BB1012000E00020FE
:1017200070470146C86880B27047016170474161E7
:1017300070470AB1016100E041617047C1607047C4
:101740004FF480320A4382618161826182698269D9
:10175000704702460020434B18684FF680731840CC
:1017600040EA021008433F4B186070473E49C86189
:101770007047F0B50A46002300240021002500F040
:101780000046B6F1004F02D1364EF16901E0354E08
:101790007168C0F3034583B200F44016B6F5401FEC
:1017A00008D121F070612F4E766826F070662D4FBB
:1017B0007E6012E000F48016B6F5801F06D1032685
:1017C00006FA05F4A14341F0706106E0460D3601CA
:1017D00003FA06F6B14341F0706122B1460D3601BD
:1017E00003FA06F6314300F00046B6F1004F02D18D
:1017F0001C4EF16101E01B4E7160F0BD30B500225E
:101800008B071C0F0F2303FA04F2164B08338C10BE
:1018100053F824309343134C08348D1044F825308A
:1018200023468C1053F824308C07240F00FA04F45C
:1018300023430C4C08348D1044F8253030BD0A4940
:10184000DC3108607047000000080140000C0140D6
:10185000001001400014014000180140001C01402C
:10186000002001400000014000002042DF480068E5
:1018700040F00100DD49086008464068DC49084046
:10188000DA49486008460068DA490840D7490860E4
:101890000846006820F4802008600846406820F46C
:1018A000FE0048604FF41F0088607047CF49096808
:1018B00021F48031CD4A11601146096821F480215C
:1018C0001160B0F5803F03D0B0F5802F0ED106E057
:1018D000C649096841F48031C44A116007E0C34930
:1018E000096841F4A021C14A116000E000BF00BFB7
:1018F000704710B501460022002300204A11012A3A
:1019000002D1BA4C236806E0022A02D1B74C236AFE
:1019100001E0B64C636A01F01F02012494401C40B0
:101920000CB1012000E0002010BD38B5002000906F
:101930000024002500BF3120FFF7DBFF054600989B
:10194000401C00900098B0F5A06F01D0002DF2D09F
:101950003120FFF7CEFF08B1012400E0002420462B
:1019600038BD01460020A14A106820F0F80040EA86
:10197000C10010607047A04908607047024600200F
:101980009A4B586820F47C1042EA01031843974BA5
:101990005860704798490866704701460020934A8E
:1019A000506820F003000843506070478F4840683B
:1019B00000F00C007047014600208C4A506820F06F
:1019C000F00008435060704701460020874A506885
:1019D00020F4E06008435060704701460020834ACD
:1019E000506820F4605040EAC1005060704729B14F
:1019F0007E4A527A02437D4B5A7204E07B4A527A05
:101A000082437A4B5A7270477B49D83108607047DD
:101A100001460020754A506820F440400843506059
:101A200070470021714A20321170704A82F82010EC
:101A3000012802D004280AD104E001216B4A203297
:101A4000117005E00521694A2032117000E000BFE5
:101A500000BF70476949086070476449096A0143DB
:101A6000624A11627047654944390860704730B571
:101A700000210022002400235C4D6D6805F00C015C
:101A800021B1042905D0082923D105E05C4D05606A
:101A900022E05B4D05601FE0544D6D6805F4701247
:101AA000524D6D6805F48034022505EB92421CB955
:101AB000544D554305600BE04C4D6D6805F4003501
:101AC0001DB1504D5543056002E04D4D5543056035
:101AD00002E04B4D056000BF00BF444D6D6805F04E
:101AE000F0010909484D6B5C0568DD4045603F4DDC
:101AF0006D6805F4E061090A434D6B5C4568DD40A3
:101B000085603A4D6D6805F46051C90A3E4D6B5CC5
:101B10004568DD40C560354D6D6805F44041890B71
:101B20003A4D6B5CC568B5FBF3F5056130BD29B175
:101B30002E4A526902432D4B5A6104E02B4A5269E6
:101B400082432A4B5A61704729B1284A926902435D
:101B5000264B9A6104E0254A92698243234B9A619D
:101B6000704729B1214AD2690243204BDA6104E06F
:101B70001E4AD26982431D4BDA61704729B11B4A64
:101B8000D2680243194BDA6004E0184AD2688243F3
:101B9000164BDA60704729B1144A12690243134B9D
:101BA0001A6104E0114A12698243104B1A617047AE
:101BB00012494039086070470F49C86470470B49A3
:101BC000C87170470948406A40F080700749486210
:101BD000704701460020054A92680A400AB1012078
:101BE00000E00020704701498872704700100240F1
:101BF0000000FFF8FFFFF6FE000042428004424270
:101C000000127A0000093D006904002079040020D8
:101C100010B50446FB48844209D101218803FFF72F
:101C2000ADFF00214FF48040FFF7A8FF32E0F648F7
:101C3000844209D101214804FFF7ADFF00214FF490
:101C40000030FFF7A8FF25E0F048844209D10121C8
:101C50008804FFF7A0FF00214FF48020FFF79BFFCF
:101C600018E0EB48844209D10121C804FFF793FF33
:101C700000214FF40020FFF78EFF0BE0E54884427F
:101C800008D101210805FFF786FF00214FF48010DD
:101C9000FFF781FF10BD2DE9F04786B005460E46DF
:101CA0000024A24600BFA1460027B08900B100BFB2
:101CB0002F462C8A4CF6FF700440F08804432C8297
:101CC000AC894EF6F3100440B0883189084371891D
:101CD00008430443AC81AC8A4FF6FF400440B0890E
:101CE0000443AC8201A8FFF7C2FEC648874202D176
:101CF000DDF810A001E0DDF80CA0A88900F4004098
:101D000040B10AEBCA0000EB0A1031684900B0FB91
:101D1000F1F807E00AEBCA0000EB0A10316889000D
:101D2000B0FBF1F86420B8FBF0F004012009642155
:101D300001FB1089A88900F4004040B1322000EB7B
:101D4000C900B0FBF1F000F00700044308E03220C6
:101D500000EB09106421B0FBF1F000F00F00044328
:101D60002C8106B0BDE8F0874FF4165101600021C8
:101D70008180C18001810C214181002181817047D6
:101D800010B502460020108A4FF2FF0318400B885E
:101D90004C8823438C882343CC88234318431082E8
:101DA00010BD0021018041808180C180704721B138
:101DB000828942F40052828104E082894DF6FF73E9
:101DC0001A4082817047F0B50346002400260025A2
:101DD000002040F66A17B94200D100BF1846C1F38F
:101DE000421401F01F06012707FA06F5012C01D164
:101DF0000C3004E0022C01D1103000E014301AB194
:101E000007682F43076002E00768AF430760F0BD33
:101E10001AB1838A0B43838202E0838A8B438382D5
:101E20007047028A4FF6F0731A400282028A0A4310
:101E30000282704782894FF2FF731A408281828941
:101E40000A438281704721B1828942F00202828175
:101E500004E082894FF6FD731A4082817047028A3E
:101E60004FF6DF731A400282028A0A4302827047E9
:101E700021B1028A42F48042028204E0028A4BF6D7
:101E8000FF731A4002827047C1F3080282807047D4
:101E900001468888C0F308007047818941F001013C
:101EA00081817047028BD2B20283028B42EA012207
:101EB00002837047028B02F47F420283028B0A4343
:101EC0000283704721B1828A42F02002828204E0BC
:101ED000828A4FF6DF731A408282704721B1828A6C
:101EE00042F01002828204E0828A4FF6EF731A40B9
:101EF0008282704721B1828A42F00802828204E025
:101F0000828A4FF6F7731A408282704721B1828924
:101F100042F40042828103E08289C2F30E02828190
:101F2000704721B1828A42F40062828204E0828A90
:101F30004FF2FF731A4082827047828A4FF6FB731A
:101F40001A408282828A0A438282704721B1828A41
:101F500042F00202828204E0828A4FF6FD731A4048
:101F60008282704702460020B1F5007F00D100BF99
:101F700013880B400BB1012000E00020704701F4F2
:101F80000072B2F5007F00D100BFCA4302807047E3
:101F900070B50246002400230025002040F66A1692
:101FA000B14200D100BFC1F3421501F01F03012669
:101FB00006FA03F3012D02D19689334006E0022D83
:101FC00002D1168A334001E0968A33400C12012672
:101FD00006FA04F41688344013B10CB1012000E075
:101FE000002070BD10B50022002340F66A14A14203
:101FF00000D100BF0A1201249440A3B2DC43048044
:1020000010BD00000038014000440040004800407E
:10201000004C00400050004031490143314A1160FA
:10202000704770B5002100230F22C47804B32D4CF3
:10203000246804F4E064C4F5E064210AC1F10403F7
:10204000CA40447804FA03F184781440214309011A
:10205000254C0678A155047804F01F050124AC40F6
:1020600005786D11AD0005F1E025C5F8004109E0E6
:10207000047804F01F050124AC401C4D067876114D
:1020800045F8264070BD1A4A0A400243154B1B1FF3
:102090001A60704739B1134A121D12680243114B7E
:1020A0001B1D1A6006E00F4A121D126882430D4B79
:1020B0001B1D1A607047042808D14FF0E021096900
:1020C00041F004014FF0E022116107E04FF0E02100
:1020D000096921F004014FF0E0221161704700000E
:1020E0000000FA050CED00E000E400E080E100E013
:1020F00080FFFF1F10B50446FE48844208D101212D
:10210000C014FFF73BFD0021E014FFF737FDC4E0EA
:10211000B4F1804F08D101210846FFF73CFD0021B2
:102120000120FFF738FDB8E0F348844208D10121CF
:102130000220FFF730FD00210220FFF72CFDACE06C
:10214000EE48844208D101210420FFF724FD00213C
:102150000420FFF720FDA0E0E948844208D10121D6
:102160000820FFF718FD00210820FFF714FD94E078
:10217000E448844208D101211020FFF70CFD002122
:102180001020FFF708FD88E0DF48844208D10121D4
:102190002020FFF700FD00212020FFF7FCFC7CE061
:1021A000DA48844208D101214014FFF7E7FC0021FE
:1021B0006014FFF7E3FC70E0D548844209D10121A7
:1021C000C804FFF7DBFC00214FF40020FFF7D6FC2A
:1021D00063E0D048844209D101210805FFF7CEFC15
:1021E00000214FF48010FFF7C9FC56E0CA48844232
:1021F00009D101214805FFF7C1FC00214FF400106F
:10220000FFF7BCFC49E0C548844208D101214020C9
:10221000FFF7C1FC00214020FFF7BDFC3DE0C048B6
:10222000844208D101218020FFF7B5FC00218020E5
:10223000FFF7B1FC31E0BB48844208D10121801591
:10224000FFF7A9FC0021A015FFF7A5FC25E0B64883
:10225000844209D101210804FFF790FC00214FF4CA
:102260008030FFF78BFC18E0B048844209D101218F
:102270004804FFF783FC00214FF40030FFF77EFC99
:102280000BE0AB48844208D101218804FFF776FCBB
:1022900000214FF48020FFF771FC10BD002202885E
:1022A000944B98420ED0994B98420BD0B0F1804F8E
:1022B00008D0914B984205D0904B984202D0904B59
:1022C000984204D14FF68F731A404B881A438D4BB6
:1022D000984207D08C4B984204D04FF6FF431A40E7
:1022E000CB881A4302808B8883850B880385814BBA
:1022F00098420BD0854B984208D08B4B984205D022
:102300008A4B984202D08A4B984201D10B7A0386BD
:1023100001238382704770B5002400220023058CBE
:102320004FF6FE7635400584028C8388048B4FF689
:102330008F752C40B51E2C400D882C43751E2A40ED
:102340000D892A434D882A436A4DA8420BD06F4D10
:10235000A84208D0744DA84205D0744DA84202D0BE
:10236000734DA84213D14FF6F7752A404D892A4381
:102370004FF6FB752A408D882A434FF6FF652B40A8
:102380004FF6FF552B408D892B43CD892B438380FE
:102390000483CD888586028470BD70B50024002238
:1023A0000023058C4FF6EF7635400584028C838838
:1023B000048B48F6FF752C404FF6FF452C400D88E6
:1023C0004FF6FF7606EA05252C434FF6DF752A40C7
:1023D0000D8906EA05152A434D8806EA05152A43A4
:1023E000444DA84202D0494DA8421DD14FF67F75F9
:1023F0002A404D894FF6FF7606EA05152A434FF627
:10240000BF752A408D8806EA05152A434FF6FF3529
:102410002B404FF2FF752B408D8906EA85052B4333
:10242000CD8906EA85052B4383800483CD88058703
:10243000028470BD70B5002400220023058C4FF685
:10244000FF6635400584028C8388848B4FF68F7538
:102450002C404FF6FC752C400D882C434FF6FF5551
:102460002A400D894FF6FF7606EA05252A434D8856
:1024700006EA05252A431F4DA84202D0234DA84253
:102480001DD14FF2FF752A404D894FF6FF7606EABF
:1024900005252A434FF6FF352A408D8806EA052593
:1024A0002A434EF6FF752B404DF6FF752B408D8964
:1024B00006EA05152B43CD8906EA05152B438380D3
:1024C0008483CD888587028470BD70B50022002387
:1024D0000024058C4EF6FF7635400584038C8488F5
:1024E000828B48F6FF752A404FF6FF452A400D883B
:1024F00020E00000002C01400004004000080040E3
:10250000000C004000100040001400400034014066
:10251000004C0140005001400054014000180040B0
:10252000001C0040002000400040014000440140E9
:10253000004801404FF6FF7606EA05252A434DF68E
:10254000FF752B400D8906EA05352B434D8806EAB9
:1025500005352B43FA4DA84202D0FA4DA84208D1C6
:102560004BF6FF752C408D894FF6FF7606EA8515F0
:102570002C4384808283CD88A0F84050038470BDB2
:10258000828B4FF2FF331A408283828B4FF6FF73A8
:1025900003EA01231A4382837047F0B50C461546BF
:1025A000002200210026078C4EF6FF7C07EA0C076C
:1025B0000784828B018C4FF6FF7707EA043640F6DA
:1025C000FF473A404FF6FF7707EA05273A434FF6B1
:1025D000FF7707EA03373A43D94FB8420ED0D94FB5
:1025E000B8420BD0B0F1804F08D0D74FB84205D0D9
:1025F000D64FB84202D0D64FB84206D14DF6FF773B
:10260000394046F48057394305E047F6FF573940D3
:1026100044F48057394382830184F0BD828B4FF6A6
:10262000F3731A408283828B0A4382837047F0B52A
:102630000C461546002200210026078C4FF6FF6C41
:1026400007EA0C070784828B018C4FF6FF7707EAB5
:1026500004264FF60C773A404FF6FF7707EA031748
:102660002F433A43B64FB8420ED0B64FB8420BD0C4
:10267000B0F1804F08D0B44FB84205D0B34FB84244
:1026800002D0B34FB84206D14FF6FF57394046F457
:102690008077394305E04FF2FF57394044F48077A3
:1026A000394382830184F0BD028B4FF2FF331A401D
:1026B0000283028B4FF6FF7303EA01231A4302835E
:1026C0007047F0B50C461546002200210026078C05
:1026D0004FF6EF7C07EA0C070784028B018C4FF65C
:1026E000FF7707EA041640F6FF473A404FF6FF77B8
:1026F00007EA03373A434FF6FF7707EA05273A43DD
:102700008F4FB8420ED08F4FB8420BD0B0F1804FF0
:1027100008D08D4FB84205D08C4FB84202D08C4FB4
:10272000B84206D14FF6DF77394046F010073943FB
:1027300005E04FF65F77394044F0100739430283D4
:102740000184F0BD028B4FF6F3731A400283028BB3
:102750000A4302837047F0B50C461546002200215B
:10276000068C4FF6FE773E400684028B018C4FF6B6
:102770000C7632407E1C06EA03162E433243704E1E
:10278000B0420ED06F4EB0420BD0B0F1804F08D0A7
:102790006D4EB04205D06D4EB04202D06C4EB0428C
:1027A00006D14FF6FD76314044F00106314305E095
:1027B0004FF6F576314044F001063143028301843F
:1027C000F0BD70B505460C465D4885420ED05D48AB
:1027D00085420BD0B5F1804F08D05B48854205D0CB
:1027E0005A48854202D05A48854200D100E000BFD5
:1027F000208850B92389A28861882846FFF7ABFF5B
:10280000E1882846FFF79EFF25E0208804280AD1AA
:102810002389A28861882846FFF753FFE18828466C
:10282000FFF742FF17E0208808280AD12389A288F1
:1028300061882846FFF7FBFEE1882846FFF7EEFE99
:1028400009E02389A28861882846FFF7A6FEE1886F
:102850002846FFF795FE70BD2DE9F04105460C4670
:1028600000260127608808B9022600E00026A0881B
:10287000012801D1022700E001272088A0B923897F
:10288000A28861882846FFF766FFE1882846FFF79F
:1028900059FF23893A4631462846FFF712FFE1885F
:1028A0002846FFF701FF13E02389A28861882846A4
:1028B000FFF707FFE1882846FFF7F6FE23893A462F
:1028C00031462846FFF747FFE1882846FFF73AFFE1
:1028D000BDE8F0810A884B881A438B881A43CB885D
:1028E0001A430B891A434B891A438B891A43A0F860
:1028F000442070474FF6FF71818000210180C18024
:102900004180017270470021018041808180C18037
:10291000018141818181C181704700210180418015
:10292000012181800021C180018170470021018047
:1029300041808180C1800181418181817047000097
:10294000002C014000340140000400400008004019
:10295000000C004021B1028842F00102028004E034
:1029600002884FF6FE731A400280704731B1B0F80A
:10297000442042F40042A0F8442005E0B0F844208E
:10298000C2F30E02A0F8442070471AB183890B43AA
:10299000838102E083898B43838170478182704702
:1029A00041EA0203A0F8483070471AB183890B430B
:1029B000838102E083898B438381704701894FF6CD
:1029C000F8721140018170470A46002101894FF6D3
:1029D0008F73194011430181704730B504460D468D
:1029E00029462046FFF7F0FF208940F007002081AC
:1029F00030BD2DE9F04104460D4616461F46602DB8
:102A000006D13B46012231462046FFF75AFE05E03B
:102A10003B46012231462046FFF79DFE29462046CF
:102A2000FFF7D2FF208940F007002081BDE8F08148
:102A300030B50C4600210189C9B24FF6FF7505EA91
:102A40000325154325432943018130BD2DE9F0417C
:102A500005460E4617469846002443463A463146F8
:102A60002846FFF7E5FF2C894FF6F870044044F044
:102A700007044FF68F70044044F070042C81BDE8C9
:102A8000F081F0B504460D4616461F463B463246D9
:102A900029462046FFF7CCFF208940F48040208162
:102AA000F0BD0185828270470A46002101884FF6F9
:102AB0008F731940114301807047F0B50C461546DD
:102AC0001E460021002200230189028B038C4FF651
:102AD000F877394021434FF6FC473A4040F201175E
:102AE0003A434FF6DD773B404FF6FF7707EA06178C
:102AF0002F433B43018102830384F0BD0A4600213A
:102B0000018B4FF68F7319401143018370470A46BA
:102B10000021018B48F6FF7319404FF6FF7303EA5B
:102B200002231943018370470A460021818B4FF627
:102B30008F7319401143818370470A460021818BAE
:102B400048F6FF7319404FF6FF7303EA0223194357
:102B50008183704721B1028842F08002028004E044
:102B600002884FF67F731A400280704721B1828835
:102B700042F00402828004E082884FF6FB731A4020
:102B80008280704721B1828842F00802828004E08E
:102B900082884FF6F7731A408280704721B182888D
:102BA00042F00102828004E082884FF6FE731A40F0
:102BB000828070470A460021018B4FF6F773194057
:102BC0001143018370470A460021018B4FF2FF73C6
:102BD00019404FF6FF7303EA02231943018370473C
:102BE0000A460021818B4FF6F77319401143818308
:102BF00070470A460021818B4FF2FF7319404FF650
:102C0000FF7303EA02231943818370470A460021B8
:102C1000018B4FF6FB7319401143018370470A463D
:102C20000021018B4FF6FF3319404FF6FF7303EA83
:102C300002231943018370470A460021818B4FF616
:102C4000FB7319401143818370470A460021818B31
:102C50004FF6FF3319404FF6FF7303EA022319437F
:102C6000818370470A460021018B4FF67F7319401C
:102C70001143018370470A460021018BC1F30E0105
:102C80004FF6FF7303EA02231943018370470A4694
:102C90000021818B4FF67F73194011438183704768
:102CA0000A460021818BC1F30E014FF6FF7303EA40
:102CB00002231943818370470A460021018C4FF695
:102CC000FD7319401143018470470A460021018CAD
:102CD0004FF6F77319401143018470470A460021EB
:102CE000018C4FF6DF7319404FF6FF7303EA0213AE
:102CF0001943018470470A460021018C4FF67F7307
:102D000019404FF6FF7303EA021319430184704719
:102D10000A460021018C4FF6FF5319404FF6FF730E
:102D200003EA02231943018470470A460021018CFB
:102D30004FF2FF7319404FF6FF7303EA0223194362
:102D4000018470470A460021018C4DF6FF7319403B
:102D50004FF6FF7303EA023319430184704730B51D
:102D6000002301248C40A3B2048C9C430484048C73
:102D700002FA01F5ADB22C43048430BD30B5002316
:102D800004248C40A3B2048C9C430484048C02FA77
:102D900001F5ADB22C43048430BD70B5034600206C
:102DA00000241846183001258D40ACB21D8CA54377
:102DB0001D8409B1082909D100EB6100056825F0DF
:102DC000700505600568154305600EE00D1FC5F32D
:102DD0004E052844056825F4E045056005684FF672
:102DE000FF7606EA02263543056070BD21B10288F0
:102DF00042F00202028004E002884FF6FD731A409E
:102E00000280704721B1028842F00402028004E08F
:102E100002884FF6FB731A400280704721B1828806
:102E200042F08002828004E082884FF67F731A406D
:102E30008280704702884FF6F7731A40028002883A
:102E40000A430280704782884FF68F731A4082804F
:102E500082880A438280704702894FF6F8731A40CD
:102E6000028102890A430281704702894FF67F730B
:102E70001A40028102890A430281704781847047A7
:102E800081857047818670470187704781877047C9
:102E9000A0F84010704702884FF6FF431A400280A6
:102EA00002880A43028070470146888E70470146B7
:102EB000088F70470146888F70470146B1F840007F
:102EC00070470146888C70470146088D704702465E
:102ED0000020138A0B400BB1012000E00020704756
:102EE000CA430282704730B5024600200023002406
:102EF000158A05EA0103958905EA010413B10CB1AD
:102F0000012000E0002030BDCA43028270477047B4
:102F10000FB4044910B503AA029800F0AFF810BC32
:102F20005DF814FB5C0400202DE9F0410E460446D8
:102F3000002020622046E168884730B3252805D06C
:102F4000D4E901219047206A401CF2E7E16820465D
:102F500000278847050018D0A5F14100192802D89C
:102F600020354FF400673246294620462760FDF79A
:102F70003DF940B1012804D0F61D26F007060836B9
:102F8000D8E7361DD6E72846DAE7206ABDE8F081A3
:102F900070B50C460546012A05D02878800600D574
:102FA000EA69002302E0012305E05B1C934202D2A0
:102FB000E05C0028F9D1A869E618C01AA861286A5F
:102FC000184428622846AFF3008004E0D5E90121C7
:102FD00014F8010B9047B442F8D32846AFF30080B1
:102FE00070BD10B5203AC0F00B80B1E81850203AFF
:102FF000A0E81850B1E81850A0E81850BFF4F5AF99
:103000005FEA027C24BFB1E81850A0E8185044BF22
:1030100018C918C0BDE810405FEA827C24BF51F88F
:10302000043B40F8043B08BF7047D20728BF31F883
:10303000023B48BF11F8012B28BF20F8023B48BFD4
:1030400000F8012B7047704770477047704710B504
:10305000436913B1AFF3008001E0FFF799FF01204E
:1030600010BD127800F124010A7000224A7001227A
:10307000EDE711684FF0FF32E9E70000074B70B54C
:103080000D467B4400F011F80446284600F020F875
:1030900010B14FF0FF3070BD204670BDB5E2FFFFAC
:1030A00001694A1C02610878704700B58FB0CDE90C
:1030B00001310021059105497944CDE903101146FC
:1030C0006846FFF731FF0FB000BD0000E5FFFFFFCE
:1030D000007B00F080007047754600F02BF8AE468C
:1030E00005006946534620F00700854618B020B514
:1030F000FEF7FCF9BDE820404FF000064FF0000756
:103100004FF000084FF0000B21F00701AC46ACE88F
:10311000C009ACE8C009ACE8C009ACE8C0098D46FC
:10312000704710B50446AFF300802046BDE810405C
:10313000FDF76EB8004870478004002000000000D2
:1031400000000000002F000000000700070000142E
:103150007F147F1400242A7F2A120062640813233C
:1031600000364955225000000503000000001C22D3
:103170004100000041221C000014083E0814000811
:10318000083E0808000000A06000000808080808C1
:10319000000060600000002010080402003E514959
:1031A000453E0000427F40000042615149460021F7
:1031B00041454B31001814127F1000274545453911
:1031C000003C4A494930000171090503003649496C
:1031D000493600064949291E000036360000000025
:1031E0005636000000081422410000141414141470
:1031F0000000412214080002015109060032495919
:10320000513E007C1211127C007F49494936003E34
:1032100041414122007F4141221C007F49494941EF
:10322000007F09090901003E4149497A007F0808E9
:10323000087F0000417F4100002040413F01007FA6
:1032400008142241007F40404040007F020C027F72
:10325000007F0408107F003E4141413E007F090984
:103260000906003E4151215E007F091929460046AA
:10327000494949310001017F0101003F4040403F81
:10328000001F2040201F003F4038403F00631408CB
:1032900014630007087008070061514945430000A6
:1032A0007F41410000552A552A55000041417F00C9
:1032B00000040201020400404040404000000102BE
:1032C0000400002054545478007F484444380038A7
:1032D0004444442000384444487F0038545454182F
:1032E00000087E0901020018A4A4A47C007F080441
:1032F00004780000447D4000004080847D00007F11
:10330000102844000000417F4000007C041804782D
:10331000007C0804047800384444443800FC242429
:1033200024180018242418FC007C08040408004811
:103330005454542000043F444020003C4040207C32
:10334000001C2040201C003C4030403C0044281021
:103350002844001CA0A0A07C004464544C441414D5
:10336000141414140000000000000000000000000D
:1033700000000000000000F8000000000000003322
:103380003000000000100C06100C060000000000C9
:103390000000000040C07840C0784000043F0404B2
:1033A0003F040400007088FC08300000001820FF73
:1033B000211E0000F008F000E018000000211C03AE
:1033C0001E211E0000F00888700000001E2123242A
:1033D0001927211010160E00000000000000000048
:1033E00000000000000000E01804020000000007D8
:1033F0001820400000020418E000000000402018DF
:1034000007000000404080F0804040000202010FB1
:1034100001020200000000F0000000000101011F95
:1034200001010100000000000000000080B07000F9
:103430000000000000000000000000000001010189
:103440000101010100000000000000000030300018
:1034500000000000000000008060180400601806F2
:103460000100000000E010080810E000000F10202C
:1034700020100F00001010F8000000000020203F76
:103480002020000000700808088870000030282400
:1034900022213000003008888848300000182020A1
:1034A00020110E000000C02010F8000000070424C6
:1034B000243F240000F8088888080800001921200B
:1034C00020110E0000E0108888180000000F112065
:1034D00020110E0000380808C83808000000003F1E
:1034E000000000000070880808887000001C22217D
:1034F00021221C0000E010080810E000000031222A
:1035000022110F00000000C0C000000000000030C9
:10351000300000000000008000000000000080601B
:10352000000000000000804020100800000102049C
:103530000810200040404040404040000404040483
:10354000040404000008102040800000002010083F
:1035500004020100007048080808F0000000003074
:1035600036010000C030C828E810E0000718272402
:1035700023140B000000C038E0000000203C2302B0
:103580000227382008F8888888700000203F202013
:1035900020110E00C0300808080838000718202045
:1035A0002010080008F808080810E000203F20203C
:1035B00020100F0008F88888E8081000203F20201D
:1035C0002320180008F88888E8081000203F200011
:1035D00003000000C0300808083800000718202049
:1035E000221E020008F808000008F808203F210108
:1035F00001213F20000808F8080800000020203FB3
:103600002020000000000808F8080800C080808022
:103610007F00000008F888C028180800203F20011B
:103620002638200008F8080000000000203F202075
:103630002020300008F8F800F8F80800203F003F8C
:10364000003F200008F830C00008F808203F2000A4
:1036500007183F00E01008080810E0000F102020B5
:1036600020100F0008F808080808F000203F21018A
:1036700001010000E01008080810E0000F182424E1
:1036800038504F0008F8888888887000203F200054
:10369000030C30200070880808083800003820210A
:1036A00021221C00180808F8080818000000203F14
:1036B0002000000008F808000008F808001F20207B
:1036C00020201F000878880000C83808000007384C
:1036D0000E010000F80800F80008F800033C07009D
:1036E000073C0300081868808068180820302C0305
:1036F000032C30200838C800C83808000000203FDC
:103700002000000010080808C838080020382621CA
:1037100020201800000000FE020202000000007FCE
:1037200040404000000C30C00000000000000001DC
:103730000638C00000020202FE00000000404040C7
:103740007F000000000004020202040000000000EC
:103750000000000000000000000000008080808069
:103760008080808000020204000000000000000051
:1037700000000000000080808080000000192422EA
:1037800022223F2008F8008080000000003F112026
:1037900020110E000000008080800000000E11202B
:1037A00020201100000000808088F800000E112009
:1037B00020103F200000808080800000001F222217
:1037C00022221300008080F0888888180020203F83
:1037D000202000000000808080808000006B949496
:1037E0009493600008F8008080800000203F210052
:1037F00000203F2000809898000000000020203F1B
:1038000020200000000000809898000000C0808008
:10381000807F000008F8000080808000203F2402A4
:103820002D302000000808F8000000000020203F94
:10383000202000008080808080808000203F200049
:103840003F20003F8080008080800000203F2100DA
:1038500000203F200000808080800000001F20208A
:1038600020201F00808000808000000080FFA120B9
:1038700020110E000000008080808000000E1120CA
:1038800020A0FF80808080008080800020203F2159
:10389000200001000000808080808000003324240C
:1038A00024241900008080E0808000000000001FB8
:1038B000202000008080000000808000001F202069
:1038C00020103F20808080000080808000010E302A
:1038D0000806010080800080008080800F300C038B
:1038E0000C300F0000808000808080000020312E8E
:1038F0000E312000808080000080808080818E706A
:103900001806010000808080808080000021302C1B
:103910002221300000000000807C02020000000034
:10392000003F404000000000FF00000000000000D9
:10393000FF0000000002027C800000000040403FC9
:103940000000000000060101020204040000000063
:10395000000000007439000800000020800400000E
:103960006C010008603B0008800400206006000035
:10397000D0010008500600A24A040001E01901022B
:1039800003040607080940445465C664544400FC17
:103990004444C442400001F00E20124A827F020AD1
:1039A00092601F0000FF1E200D0000F29292929E76
:1039B0000082FAAAAA03F28220200B245F94403FDF
:1039C0000080BEAAAA0302108060410152FF08F1E4
:1039D00060000F1080804020100C0300030C1020AA
:1039E00040804010084030119690909104F0069865
:1039F00014135030C0220401300644847E06050AA8
:103A0000011040000B1420D04C4344C8102000F893
:103A1000E1040E10003F404448474070000F4080D2
:103A20007F00053E40200A100C048414640506F44F
:103A3000A80310140CC0000E108484444724140CF6
:103A4000070C14244484C0140602FA8282FE240067
:103A50000710504C434C50208010060818488444EE
:103A6000C300071058414E605847A01009100C249D
:103A700024A4642526060311242480100540404810
:103A80004901127F040004104B48406015E22101F7
:103A9000000711FC2222222322E022020116420307
:103AA0004101091041080F10444424FF140024A4CC
:103AB0007F8404FC00C061040F1188894A29180E14
:103AC0000A09488848380103811008424242C27EF0
:103AD00042C20701129F593F15C61101031570001C
:103AE00001000415C03FC01A6140598101123D4FC9
:103AF000E0001B0301131F1308047D693A03110141
:103B00000E213008884828180FE8080101111F23EA
:103B100008090132FF06011221100400F888012271
:103B2000FF050213F8C2221F5B227F200004119FB1
:103B300080F0401004FE028201194711010510A017
:103B4000240480601F3A1804407F4044091300E1B8
:103B5000F28E0761046D65042004020406BA0000B9
:0400000508000131BD
:00000001FF
