:020000040800F2
:10000000E8F40020F903000857A50008EB9F00085A
:100010000BA40008E77600081DB8000800000000E7
:100020000000000000000000000000004103000884
:10003000A17E00080000000095030008F1B200084E
:100040001304000813040008130400081304000834
:100050001304000813040008130400081304000824
:100060001304000813040008130400081304000814
:100070001304000813040008130400081304000804
:1000800013040008130400081304000813040008F4
:100090004D77000813040008130400081304000837
:1000A00013040008130400081304000813040008D4
:1000B000130400085DB300081304000813040008CB
:1000C00013040008130400081304000813040008B4
:1000D0001304000869B70008ADB70008F1B70008BD
:1000E0001304000813040008130400081304000894
:1000F0001304000813040008130400081304000884
:100100001304000813040008130400081304000873
:100110001304000813040008130400081304000863
:100120001304000813040008130400081304000853
:100130001304000813040008130400081304000843
:10014000357800081304000813040008130400089D
:100150001304000813040008130400081304000823
:100160001304000813040008130400081304000813
:100170001304000813040008130400080000000022
:1001800013040008130400081304000813040008F3
:1001900013040008130400081304000813040008E3
:1001A00013040008130400081304000800F002F808
:1001B00000F0B6F80AA090E8000C82448344AAF14B
:1001C0000107DA4501D100F0ABF8AFF2090EBAE849
:1001D0000F0013F0010F18BFFB1A43F0010318477B
:1001E0000C7201002C72010010F8013B0A4413F05C
:1001F000030408BF10F8014B1D1108BF10F8015B84
:10020000641E05D010F8016B641E01F8016BF9D172
:10021000002D15D010F8014B03F00C030C2BA1EBB3
:1002200004040ABF10F8013BA4EB8314A4EB0324DD
:1002300005F1010314F8016B5B1E01F8016BF9D5A0
:10024000914238BF10F8013BD1D3704700230024FE
:1002500000250026103A28BF78C1FBD8520728BFD6
:1002600030C148BF0B6070476E2906F015807029B9
:1002700005F02185662915F09886652915F0958683
:10028000672915F09286612915F0918603681B0A8B
:1002900028BF41F08001692905F09284642905F0A6
:1002A0008F84752905F08C846F2906F01B837829CB
:1002B00005F0ED84E92906F0B582E42906F0B28262
:1002C000F52906F0AF82EF2906F01883F82905F02A
:1002D000EC840368DB0928BF41F08001632906F044
:1002E0002482732906F02982E32906F02785F32961
:1002F00006F02C85002070471FB515F008FE06F0AB
:1003000007FB04000020002114F088FE401C606000
:100310000020002114F06CFEE0601FBD10B510BD80
:1003200006F0AEFD1146FFF7E7FF11F03BF906F0CE
:10033000D5FD03B4FFF7F2FF03BC0EF048F8000050
:100340002A4B19680868B0E8F04F80F30988BFF3BA
:100350006F8F4FF0000080F311887047000000009D
:1003600006480068006880F3088862B661B6BFF38B
:100370004F8FBFF36F8F00DF00BF00BF08ED00E0BD
:10038000DFF80C00016841F470010160704700BFA4
:1003900088ED00E0EFF30980BFF36F8F134B1A680D
:1003A0001EF0100F08BF20ED108A20E9F04F1060FA
:1003B00008B44FF0500080F31188BFF34F8FBFF3A4
:1003C0006F8F13F0E3FF4FF0000080F3118808BC3B
:1003D00019680868B0E8F04F1EF0100F08BFB0ECC5
:1003E000108A80F30988BFF36F8F704730000020B8
:1003F000EFF305807047000009488047094800472F
:10040000FEE7FEE7FEE7FEE7FEE7FEE7FEE7FEE7C4
:10041000FEE7FEE704480549054A064B7047000021
:1004200009B30008AD010008E8EE0020E8F4002060
:10043000E8F00020E8F00020FE4880ED3A0A70471E
:100440002DE9F047DFF8EC9300262DED0A8B0446EA
:10045000B0EE408AF0EE608A884635463746D9F8D5
:10046000AC0015F0AEF853EC182B15F0D5F86FD39F
:10047000D9F8B00015F0A5F853EC182B15F0AEFA2A
:10048000F5D3B4F90000B4F90610401A15F099F844
:1004900053EC182B15F0C0F800D20126B4F90E0069
:1004A000B4F91410401A15F08CF853EC182B15F011
:1004B000B3F800D2761CB4F91C00B4F92210401A2B
:1004C00015F07FF853EC182B15F0A6F800D2761C27
:1004D0009FEDD90B012E3BDC53EC102B51EC180B8C
:1004E00015F0D6F88946064649EC180BB4F9000019
:1004F000B4F90610401A15F064F853EC182B15F0F7
:100500006DFA00D20125B4F90E00B4F9141049ECCB
:10051000186B401A15F055F853EC182B15F05EFACD
:1005200000D26D1CB4F91C00B4F9221049EC186B10
:10053000401A15F046F853EC182B15F04FFA00D27C
:100540006D1C002D05DD0220BDEC0A8BBDE8F08797
:1005500065E000269FEDBACB06EB460904EB890562
:10056000B5F90A0015F02DF898ED048B53EC182B13
:1005700015F042FB41EC190BB5F9040015F021F818
:1005800053EC182B15F038FB53EC192B15F080F8B1
:1005900041EC190BB5F9080015F013F898ED028B32
:1005A00053EC182B15F028FB41EC1A0BB5F902009F
:1005B00015F007F853EC182B15F01EFB53EC1A2B13
:1005C00015F066F841EC1A0BB5F9060014F0F9FFC6
:1005D00098ED008B53EC182B15F00EFB41EC1B0B28
:1005E00034F9290014F0EDFF53EC182B15F004FB3F
:1005F00053EC1B2B15F04CF853EC1A2B14F062FD46
:1006000053EC192B14F05EFD53EC1C2B15F004F881
:1006100000D27F1C761C032E9EDB022F01DA012004
:1006200092E7002090E788490A684B68D00180EA89
:10063000D20080EA031048608B68520380EAC3034B
:1006400082EA5312520282EAD0208B60086070471F
:1006500010B52DED048BF0EE408AFFF7E4FF00EEBD
:10066000100AB8EE400ADFED790A20EE200A9FED6D
:10067000789A20EE090A0BF0BFFEB0EE408AFFF731
:10068000D2FF00EE100AB8EE400A20EE090AB5EEDD
:10069000C00AF1EE10FA01D1B7EE000A10EE100A0E
:1006A00015F094FB41EC100B0BF0DAFF9FED691B8A
:1006B00051EC100B53EC112B14F0EAFF14F0D0FCAA
:1006C00000EE100A0DF041F920EE280A20EE080A8B
:1006D000BDEC048B10BD2DE9F04105462DED048BDA
:1006E000B0EE608AF0EE408A0F4618EE100A15F060
:1006F0006DFB97ED301B53EC112B14F0C9FF41EC4F
:10070000190B18EE900A15F061FB95ED301B53ECB8
:10071000112B14F0BDFF53EC192B14F0D3FC002463
:10072000C5E9300118EE100A15F050FB07EBC408BC
:1007300098ED001B53EC112B14F0AAFF41EC190BA0
:1007400018EE900A15F042FB05EBC40696ED001B6F
:1007500053EC112B14F09CFF53EC192B14F0B2FC4A
:10076000C6E9000118EE100A15F030FB98ED241BC5
:1007700053EC112B14F08CFF41EC190B18EE900A7E
:1007800015F024FB96ED241B53EC112B14F080FF85
:1007900053EC192B14F096FC641CC6E92401062CBA
:1007A000C0DB002418EE100A15F010FB41EC100B12
:1007B00007EBC40090ED121B51EC100B53EC112B06
:1007C00014F066FF41EC190B18EE900A15F0FEFAD2
:1007D00005EBC40696ED121B53EC112B14F058FFD9
:1007E00053EC192B14F06EFC641CC6E91201092CA1
:1007F000D8DB002418EE100A15F0E8FA41EC100BD3
:1008000007EBC40090ED0C1B51EC100B53EC112BBB
:1008100014F03EFF41EC190B18EE900A15F0D6FAD1
:1008200005EBC40696ED0C1B53EC112B14F030FFB6
:1008300014E0000068E10020000000000000044017
:100840000000000000000000740D0020DB0FC94014
:100850000000802F00000000000000C053EC192BA6
:1008600014F030FC641CC6E90C01032CC2DBBDECA7
:10087000048BBDE8F0812DE9F04F04462DED068B89
:1008800083B00D46086814F09CFE41EC1A0B6868B2
:1008900014F097FE41EC190BA86814F092FE41EC9D
:1008A000180B94ED300B9FEDFE1B51EC100B53EC2D
:1008B000112B14F007FCC4E9300194ED0C0B53EC40
:1008C0001A2B51EC100B14F0FDFBC4E90C0194ED54
:1008D0000E0B53EC192B51EC100B14F0F3FBC4E985
:1008E0000E0194ED100B53EC182B51EC100B14F07F
:1008F000E9FBC4E9100153EC1A2B51EC1A0B14F06C
:10090000C7FE029194ED001B064653EC112B14F028
:10091000D9FBC4E9000153EC192B51EC1A0B14F06C
:10092000B7FE894649EC100B94ED021B054653ECCB
:10093000112B51EC100B14F0C5FBC4E9020153EC70
:10094000182B51EC1A0B14F0A3FE8B464BEC100B3A
:1009500094ED041B804653EC112B51EC100B14F05A
:10096000B1FBC4E9040153EC192B51EC190B14F041
:100970008FFE019194ED061B074653EC112B14F0EA
:10098000A1FBC4E9060153EC182B51EC190B14F030
:100990007FFE009194ED081B824653EC112B14F05E
:1009A00091FBC4E9080153EC182B51EC180B14F01F
:1009B0006FFE94ED0A1B53EC112B14F083FBC4E97A
:1009C0000A01029953EC1A2B41EC106B51EC100BFD
:1009D00014F05EFE94ED121B53EC112B14F072FB1D
:1009E00049EC105BC4E9120153EC192B51EC100BCC
:1009F00014F04EFE94ED141B53EC112B14F062FB1B
:100A00004BEC108BC4E9140153EC182B51EC100B78
:100A100014F03EFE94ED161B53EC112B14F052FB18
:100A200049EC105BC4E9160153EC1A2B51EC100B86
:100A300014F02EFE94ED181B53EC112B14F042FB16
:100A4000C4E91801019953EC192B41EC107B51ECCE
:100A5000100B14F01DFE94ED1A1B53EC112B14F027
:100A600031FBC4E91A010099554641EC10AB0E4622
:100A700053EC182B51EC100B14F00AFE94ED1C1BD8
:100A800053EC112B14F01EFBC4E91C0153EC1A2B80
:100A900051EC180B14F0FCFD53EC1A2B14F0F8FD7C
:100AA00094ED1E1B53EC112B14F00CFB46EC105B69
:100AB000C4E91E0153EC192B51EC100B14F0E8FDA6
:100AC00094ED201B53EC112B14F0FCFAC4E9200127
:100AD00053EC182B51EC180B14F0DAFD894649EC55
:100AE000100B074653EC182B51EC100B14F0D0FDF3
:100AF00094ED221B53EC112B14F0E4FAC4E922010B
:100B000053EC1A2B51EC1A0B14F0C2FD884648EC3A
:100B1000100B054653EC1A2B51EC100B14F0B8FDDA
:100B200053EC1A2B14F0B4FD94ED241B53EC112B51
:100B300014F0C8FAC4E9240153EC192B51EC190B39
:100B400014F0A6FD8A464AEC100B064653EC192B0E
:100B500051EC100B14F09CFD53EC192B14F098FD84
:100B600094ED261B53EC112B14F0ACFA49EC107BDE
:100B7000C4E9260153EC182B51EC100B14F088FD3E
:100B800053EC182B14F084FD94ED281B53EC112B1F
:100B900014F098FA48EC105BC4E9280153EC192BC7
:100BA00051EC100B14F074FD53EC192B14F070FD84
:100BB00094ED2A1B53EC112B14F084FA48EC105BD3
:100BC000C4E92A0153EC182B51EC100B14F060FD12
:100BD00053EC182B14F05CFD94ED2C1B53EC112BF3
:100BE00014F070FA4AEC106BC4E92C0153EC182B8A
:100BF00051EC100B14F04CFD53EC182B14F048FD85
:100C000094ED2E1B53EC112B14F05CFAC4E92E0169
:100C100003B0BDEC068BBDE8F08F2DE9F04F934695
:100C20002DED108B0D46044693B090ED0CEB53EC7C
:100C30001E2B51EC1E0B14F02BFD94ED000B41EC20
:100C4000190B8DED080B94ED308B53EC102B51EC00
:100C5000180B14F01DFD53EC192B14F0CDFF94ED7F
:100C60000EDB41EC1F0B53EC1D2B51EC1D0B14F054
:100C70000FFD94ED060B41EC190B8DED060B53ECBB
:100C8000102B51EC180B14F003FD53EC192B14F03E
:100C9000B3FF41EC100B8DED040B94ED10CB03E092
:100CA000000000000000F03F53EC1C2B51EC1C0B2B
:100CB00014F0EEFC94ED0A0B41EC190B8DED020BD8
:100CC00053EC102B51EC180B14F0E2FC53EC192BE5
:100CD00014F092FF41EC110B53EC1D2B8DED001B1A
:100CE00051EC1E0B14F0D4FC94ED020B41EC190BEB
:100CF00053EC102B51EC180B14F0CAFC53EC192BCD
:100D000014F07AFF41EC1B0B53EC1C2B51EC1E0B27
:100D100014F0BEFC94ED040B41EC190B53EC102BBA
:100D200051EC180B14F0B4FC53EC192B14F064FFC5
:100D300041EC1A0B53EC1C2B51EC1D0B14F0A8FCCE
:100D400094ED080B41EC190B53EC102B51EC180BE4
:100D500014F09EFC53EC192B14F04EFF9DED020B8A
:100D600041EC190B53EC102B51EC1E0B14F090FCC2
:100D700041EC110B51EC180B8DED101B94ED160B83
:100D800053EC102B14F084FC41EC110B51EC1E0BB6
:100D90008DED0E1B9DED060B53EC102B14F078FC23
:100DA00041EC110B51EC180B8DED0C1B94ED140B59
:100DB00053EC102B14F06CFC41EC110B51EC1E0B9E
:100DC0008DED0A1B9DED080B53EC102B14F060FC0D
:100DD00094ED120B41EC1E0B53EC102B51EC180B45
:100DE00014F056FC53EC1E2B14F006FF9DED0A1B6D
:100DF00053EC112B14F066F99DED0C1B53EC112BE9
:100E000014F0FAFE9DED0E1B53EC112B14F05AF961
:100E10009DED101B53EC112B14F0EEFE9FEDFE1B0D
:100E200053EC112B14F034FC9DED020B41EC1E0B26
:100E300053EC102B51EC1D0B14F02AFC41EC110B60
:100E400051EC180B8DED101B94ED1C0B53EC102B7B
:100E500014F01EFC41EC110B51EC1D0B8DED0E1B23
:100E60009DED060B53EC102B14F012FC41EC110B12
:100E700051EC180B8DED0C1B94ED1A0B53EC102B51
:100E800014F006FC41EC110B51EC1D0B8DED0A1B0F
:100E90009DED080B53EC102B14F0FAFB94ED180B9E
:100EA00041EC1D0B53EC102B51EC180B14F0F0FB24
:100EB00053EC1D2B14F0A0FE9DED0A1B53EC112BDF
:100EC00014F000F99DED0C1B53EC112B14F094FE63
:100ED0009DED0E1B53EC112B14F0F4F89DED101B3F
:100EE00053EC112B14F088FE9FEDCB1B53EC112B10
:100EF00014F0CEFB9DED020B41EC1D0B53EC102BBF
:100F000051EC1C0B14F0C4FB41EC110B51EC180B11
:100F10008DED021B94ED220B53EC102B14F0B8FB5B
:100F200041EC110B51EC1C0B8DED0A1B9DED060BDA
:100F300053EC102B14F0ACFB41EC110B51EC180BE3
:100F40008DED0C1B94ED200B53EC102B14F0A0FB3B
:100F500041EC110B51EC1C0B8DED061B9DED080BAC
:100F600053EC102B14F094FB94ED1E0B41EC1C0B76
:100F700053EC102B51EC180B14F08AFB53EC1C2B88
:100F800014F03AFE9DED061B53EC112B14F09AF869
:100F90009DED0C1B53EC112B14F02EFE9DED0A1B46
:100FA00053EC112B14F08EF89DED021B53EC112B1A
:100FB00014F022FE9FED981B53EC112B14F068FBEC
:100FC0009DED040B41EC180B53EC102B51EC1F0B57
:100FD00014F05EFB10919DED001B824653EC112B2B
:100FE00014F056FB41EC110B53EC192B8DED0A1B41
:100FF00051EC1F0B14F04CFB53EC192B14F048FB75
:1010000041EC110B53EC1A2B8DED081B9DED040BDD
:1010100051EC100B14F03CFB814653EC1A2B119150
:1010200014F036FB41EC110B8DED061B9FED7C0B94
:1010300051EC1B0B53EC102B14F02AFB53EC1A2B26
:1010400014F026FB53EC192B14F022FB9DED001B32
:1010500041EC1C0B53EC1B2B51EC110B14F018FB47
:10106000074653EC1B2B029114F012FB53EC1C2B84
:1010700014F0C2FD9DED061B53EC112B14F022F869
:101080009DED081B53EC112B14F01CF89DED0A1B71
:1010900053EC112B14F0B0FD41EC1C0B9FED620BD7
:1010A00053EC102B14F022FA7DD053EC192B51EC99
:1010B0001B0B14F0EDFA53EC182B14F0E9FA41EC89
:1010C000110B53EC1D2B8DED0E1B029941EC107B87
:1010D00051EC100B14F0DCFA41EC110B8DED0C1BF4
:1010E0009DED000B53EC102B9DED040B51EC100B00
:1010F00014F0CEFA53EC1E2B14F0CAFA41EC110B8B
:1011000053EC192B8DED081B51EC190B14F0C0FAA0
:1011100053EC1E2B14F0BCFA41EC110B53EC1D2BBD
:101120008DED0A1B51EC190B14F0B2FA41EC110BC6
:1011300053EC182B8DED061B9DED040B51EC100BA1
:1011400014F0A6FA9DED061B53EC112B14F054FD80
:1011500053EC1A2B14F09CFA9DED0A1B53EC112B47
:1011600013F0B0FF9DED081B53EC112B14F044FD60
:101170009DED0C1B53EC112B13F0A4FF9DED0E1BEA
:1011800053EC112B14F038FD41EC100B53EC1A2BDF
:101190008DED060B51EC1B0B14F07AFA88460646CF
:1011A00048EC100B00E065E153EC182B51EC100BF0
:1011B00014F06EFA41EC110B53EC1E2B8DED041B59
:1011C000029941EC107B51EC100B14F061FA41ECE8
:1011D000110B51EC1F0B8DED021B9DED000B53EC21
:1011E000102B14F055FA53EC1D2B14F051FA41EC6E
:1011F000110B53EC1A2B8DED081B51EC1A0B14F04C
:1012000047FA53EC1D2B14F043FA41EC110B53EC4D
:101210001E2B8DED001B0BE0000000000000E03FE6
:10122000000000000000004000000000000000007E
:1012300051EC1A0B14F02CFA41EC1A0B53EC182B4E
:1012400051EC1F0B14F024FA53EC1A2B14F0D4FCBD
:1012500053EC192B14F01CFA9DED001B53EC112BD1
:1012600013F030FF9DED081B53EC112B14F0C4FC60
:101270009DED021B53EC112B13F024FF9DED041B7D
:1012800053EC112B14F0B8FC41EC100B53EC1D2B5C
:101290008DED040B48EC106B51EC100B14F0F8F9C9
:1012A00041EC110B53EC1E2B8DED001B119941EC01
:1012B000109B51EC100B14F0EBF941EC110B53ECBB
:1012C000182B8DED021B109941EC10AB51EC100B5B
:1012D00014F0DEF941EC1A0B53EC1B2B51EC1B0BF9
:1012E00014F0D6F953EC182B14F0D2F941EC180B8A
:1012F00053EC1E2B51EC1B0B14F0CAF941EC1B0BE9
:1013000053EC1D2B51EC1F0B14F0C2F953EC1B2BAB
:1013100014F072FC53EC192B14F0BAF953EC182B9F
:1013200013F0D0FE53EC1A2B14F066FC9DED021B5B
:1013300053EC112B13F0C6FE9DED001B53EC112B4B
:1013400014F05AFC9DED060B41EC190B53EC1C2BD1
:1013500051EC100B13F072FF41EC180B53EC1C2BEB
:1013600085ED008B9DED040B51EC100B13F066FF27
:1013700041EC1A0B53EC1C2B85ED02AB51EC190B15
:1013800013F05CFF41EC190B85ED049B94ED100B01
:1013900053EC102B14F07CF994ED0E0B41EC1B0B6D
:1013A00053EC102B51EC1A0B14F072F994ED0C0B5A
:1013B00041EC1C0B53EC102B51EC180B14F068F99A
:1013C00053EC1C2B13F07EFE53EC1B2B13F07AFE18
:1013D0001FED6D1B53EC112B14F05AF994ED061B05
:1013E00094ED000B41EC1B0B53EC112B51EC100B4B
:1013F00013F068FE94ED0A1B53EC112B13F062FE00
:1014000053EC1B2B14F0F8FB94ED301B53EC112B19
:1014100013F014FF41EC1B0B53EC192B51EC190B7F
:1014200014F036F941EC190B53EC1A2B51EC1A0B52
:1014300014F02EF941EC1A0B53EC182B51EC180B4D
:1014400014F026F953EC1A2B13F03CFE53EC192B35
:1014500013F038FE53EC1B2B13F034FE41EC100B51
:101460000CF036FA8BED000B012013B0BDEC108BA5
:10147000BDE8F08F0020F8E72DE9F04F0D462DED87
:10148000108B04468BB091ED00AB53EC1A2B51EC52
:101490001A0B14F0FDF894ED0CCB53EC1C2B14F04C
:1014A000F7F853EC1C2B14F0F3F894ED30FB41ECFF
:1014B000180B53EC1A2B51EC1F0B14F0E9F88B4668
:1014C0004BEC100B074653EC1A2B51EC100B14F09D
:1014D000DFF894ED00EB53EC1E2B14F0D9F853EC2D
:1014E000182B14F089FB41EC190B53EC1E2B51EC1B
:1014F0001A0B14F0CDF853EC1C2B14F0C9F84BEC7C
:10150000107B94ED121B41EC180B53EC112B51EC9A
:10151000100B14F0BDF853EC192B14F095FA53ECA2
:10152000182B13F0CFFD41EC1B0B1FEDC30B51EC3F
:101530001A0B53EC102B14F0ABF8894649EC100B46
:1015400095ED029B064653EC192B51EC100B14F051
:101550009FF853EC1C2B14F09BF894ED0EDB53EC2E
:101560001D2B14F095F841EC180B1FEDD30B51EC2B
:101570001F0B53EC102B14F08BF8824653EC1A2BF4
:10158000069114F085F853EC192B14F081F894EDC2
:10159000021B53EC112B14F07BF853EC1B2B13F0B4
:1015A00091FD53EC182B14F027FB41EC180B53EC76
:1015B0001C2B51EC1A0B14F06BF8049194ED06BB44
:1015C000804653EC1B2B14F063F841EC110B4BECF1
:1015D000107B8DED001B94ED141B51EC100B53ECA4
:1015E000112B14F055F853EC182B14F02DFA9DED37
:1015F000001B53EC112B13F065FD41EC110B49EC72
:10160000106B8DED001B95ED048B51EC100B53EC22
:10161000182B14F03DF853EC1C2B14F039F894ED12
:1016200010CB53EC1C2B14F033F841EC110B53ECA2
:101630001A2B8DED021B069941EC10AB51EC100BEF
:1016400014F026F853EC182B14F022F894ED041B38
:1016500053EC112B14F01CF89DED001B53EC112BD7
:1016600013F030FD9DED021B53EC112B14F0C4FA66
:1016700041EC100B8DED000B049994ED0AAB41EC9D
:10168000108B53EC1A2B51EC100B14F001F841ECB9
:10169000110B4BEC107B8DED021B94ED161B51ECE6
:1016A000100B53EC112B13F0F3FF9DED001B53ECCB
:1016B000112B14F0C9F99DED021B53EC112B13F003
:1016C00001FD41EC110B8DED001B9FEDFE0B51EC6C
:1016D0001E0B53EC102B13F0DBFF53EC1E2B13F0FF
:1016E000D7FF41EC110B8DED021B9FEDF60B51EC7A
:1016F0001F0B53EC102B13F0CBFF059194ED241B23
:10170000814653EC112B13F0C3FF9DED001B53ECEE
:10171000112B13F0D7FC9DED021B53EC112B14F091
:101720006BFA41EC110B53EC1E2B8DED001B51ECB1
:10173000190B13F0ADFF53EC1D2B13F0A9FF41EC77
:10174000110B53EC192B8DED081B51EC1F0B13F0F3
:101750009FFF039194ED181B064653EC112B13F0D9
:1017600097FF9DED001B53EC112B14F06DF99DEDCF
:10177000081B53EC112B13F0A5FC41EC110B8DED64
:10178000001B9FEDD20B51EC1E0B53EC102B13F0F2
:101790007FFF8B464BEC100B054653EC1B2B51EC9B
:1017A000100B13F075FF41EC110B8DED081B9FED35
:1017B000C70B51EC1F0B53EC102B13F069FF049176
:1017C00094ED2A1B804653EC112B13F061FF9DED25
:1017D000001B53EC112B13F075FC9DED081B53EC13
:1017E000112B14F009FA41EC110B53EC1E2B8DED6B
:1017F000001B51EC180B13F04BFF53EC1C2B13F098
:1018000047FF41EC1E0B53EC182B51EC1F0B13F050
:101810003FFF029194ED1E1B074653EC112B13F072
:1018200037FF9DED001B53EC112B14F00DF953EC19
:101830001E2B13F047FC4BEC105B41EC1F0B53ECE1
:101840001A2B51EC100B13F023FF41EC1E0B0499E3
:1018500094ED2C1B41EC108B53EC112B51EC100B25
:1018600013F016FF53EC1F2B13F02CFC53EC1E2B24
:1018700014F0C2F941EC1F0B53EC192B51EC190B6E
:1018800013F006FF53EC1D2B13F002FF53EC1D2B3E
:1018900013F0FEFE41EC1E0B039953EC192B41ECA7
:1018A000106B51EC100B13F0F3FE53EC1B2B13F0E9
:1018B000EFFE53EC1F2B13F005FC53EC1E2B14F022
:1018C0009BF941EC1F0B53EC1B2B51EC190B13F044
:1018D000DFFE53EC1D2B13F0DBFE41EC1E0B0399D6
:1018E00094ED1A1B41EC106B53EC112B51EC100BC7
:1018F00013F0CEFE53EC1F2B14F0A6F853EC1E2B66
:1019000013F0E0FB41EC1F0B9FED720B51EC190B38
:1019100053EC102B13F0BCFE53EC182B13F0B8FE55
:1019200053EC1D2B13F0B4FE53EC1C2B13F0B0FE44
:1019300041EC1E0B069953EC192B41EC10AB51EC0A
:10194000100B13F0A5FE53EC182B13F0A1FE94ED31
:10195000081B53EC112B13F09BFE53EC1F2B13F0C1
:10196000B1FB53EC1E2B14F047F941EC1E0B53EC6A
:101970001D2B51EC190B13F08BFE53EC1A2B13F0AB
:1019800087FE41EC190B039994ED1C1B41EC106B85
:1019900053EC112B51EC100B13F07AFE53EC1E2B71
:1019A00014F052F853EC192B13F08CFB41EC1D0B87
:1019B0009FED44EB51EC1B0B53EC1E2B13F068FE18
:1019C00053EC1B2B13F064FE41EC190B059994EDBD
:1019D000261B41EC109B53EC112B51EC100B13F018
:1019E00057FE53EC1D2B13F06DFB53EC192B14F029
:1019F00003F941EC1D0B53EC1B2B51EC180B13F0AE
:101A000047FE53EC1C2B13F043FE41EC190B0299DB
:101A100094ED201B41EC107B53EC112B51EC100B7F
:101A200013F036FE53EC1D2B14F00EF853EC192B6B
:101A300013F048FB9FED250B41EC190B53EC102BD9
:101A400051EC1B0B13F024FE53EC1A2B13F020FE69
:101A500041EC1B0B049994ED2E1B41EC108B53ECC5
:101A6000112B51EC100B13F013FE53EC192B13F048
:101A700029FB53EC1B2B14F0BFF841EC1B0B53EC70
:101A8000182B51EC180B13F003FE53EC1C2B13F026
:101A9000FFFD53EC1C2B13F0FBFD41EC190B0299DD
:101AA00053EC182B41EC107B51EC100B13F0F0FDB4
:101AB00053EC1A2B13F0ECFD53EC1B2B13F002FB31
:101AC0000CE00000000000000000D03F000000001B
:101AD0000000E03F000000000000004053EC192B24
:101AE00014F08AF841EC190B53EC1A2B51EC180B3B
:101AF00013F0CEFD53EC1C2B13F0CAFD41EC180B78
:101B0000029994ED221B41EC107B53EC112B51EC0C
:101B1000100B13F0BDFD53EC192B13F095FF53EC94
:101B2000182B13F0CFFA41EC180B53EC1E2B51EC91
:101B30001A0B13F0ADFD53EC1A2B13F0A9FD41EC79
:101B4000190B059994ED281B41EC109B53EC112BBC
:101B500051EC100B13F09CFD53EC182B13F0B2FA60
:101B600053EC192B14F048F841EC100B0BB07DE44A
:101B700030B50446B0F88C0089B000040690B4F883
:101B80008E000D4600040790B4F8900088340004DD
:101B9000089002A80EF0AAFC029906982B46401A5B
:101BA00006900399079806AA401A07900499089886
:101BB000401A08902088616A80B20EF043FB09B099
:101BC00030BDF0B50D462DED048B87B06946FFF7AB
:101BD000CFFF9FEDFE8B00246F469FEDFE9A03AE74
:101BE00057F8240000EE100A06EB8400B8EEC00A95
:101BF00020EE090A80ED000A20EE000A10EE100A1D
:101C000014F0E4F853EC182B13F05CFA41EC180BC9
:101C1000641C032CE4DBB0EE480AF0EE680A0BF01B
:101C200057FEB0EE408AF0EE608A002456F8240099
:101C300014F0CCF853EC182B13F000FB13F010FA4F
:101C400000EE100A05EB8400641CD0ED000A032CA2
:101C500030EE200A80ED000AE8DB686D401C686504
:101C60000EF0AEFEE86707B0BDEC048BF0BD2DE9C9
:101C7000F04104460EF0D6FC40BB0EF063FC042895
:101C800024D0D54920460E46FFF79BFFD34DD5E91A
:101C90005C01814205DB304603F0E5FB0020C5F81E
:101CA0007401208E4FF00406C00515D504F118000C
:101CB0000EF0ACFC8009B0F5C87F0AD2D5F8B800A8
:101CC000002850DD401EC5F8B8004AE00120BDE8FC
:101CD000F081C5F8B86044E0D4F8A010D5F814013C
:101CE000081A01D4034600E04342BB4A4FF4A02C3B
:101CF000583A634505DDD4E929035365C2E9131059
:101D00002FE00312D4F8A470D5F818015B43381AF9
:101D100001D4864601E0C0F1000EE64505DDD4F8A9
:101D2000A800D164C2E914701BE0001200FB00336C
:101D3000D4F8A800D5F81C11401A01D4014600E0DF
:101D4000414261450DDC001200FB0030B0F5403F20
:101D5000B4DBA034C5F8B86094E80B004C3282E8DC
:101D60000B000020B3E70220B1E72DE9F04F9B4CB8
:101D70002DED028B93B0D4F8A81090ED000B04EB7E
:101D8000C10181ED000BD4F8A810491CC4F8A810BB
:101D900090ED020B04EBC10181ED000BD4F8A8100B
:101DA000491CC4F8A81090ED040B04EBC10080EDB1
:101DB000000BD4F8A800401CC4F8A800152802DBCA
:101DC0000020C4F8A800182284490CA804F0B3F835
:101DD0001822824904A804F0AEF801260DF1300A59
:101DE0000DF1100BA146002406EB460808EB040198
:101DF00009EBC1050AEBC40795ED001B97ED000B3D
:101E000053EC112B51EC100B13F0E8FD03D295EDC0
:101E1000000B87ED000B0BEBC40795ED001B97ED56
:101E2000000B53EC112B51EC100B13F0F5FB03D20C
:101E300095ED000B87ED000B641C032CD6DB761CA4
:101E4000072ED0DB9DED0C1B9DED040B53EC112BED
:101E500051EC100B13F0D0FE9DED0E1B9DED060B0B
:101E600041EC180B53EC112B51EC100B13F0C4FE8A
:101E700053EC182B13F0D0FB0BD39DED0E1B9DEDF7
:101E8000060B53EC112B51EC100B13F0B5FE41EC8B
:101E9000180B9DED101B9DED080B53EC112B51EC15
:101EA000100B13F0A9FE53EC182B13F0B5FB0BD35A
:101EB0009DED101B9DED080B53EC112B51EC100BFD
:101EC00013F09AFE41EC180B13B0B0EE480AF0EE96
:101ED000680ABDEC028BBDE8F08F10B504462DED0D
:101EE000068B9CB0002155200E91CDE90F1011906A
:101EF0009FED3B8B0AA80EF0C7FA12A90AA80EF0B4
:101F00003DFE16AA0EA912A80EF05BFE6A460AA9AB
:101F100016A80EF056FE0198B2EE059A00F59670DE
:101F200001900298B0EE490A00F59670029003986D
:101F300000F596700390FEF78BFBBDEEC00A019989
:101F400010EE100AB0EE490A08440190FEF780FB3B
:101F5000BDEEC00A029810EE101AB0EE490A08440D
:101F60000290FEF775FBBDEEC00A039910EE100A51
:101F700008440390204601A9FEF77DFC94ED300B48
:101F80009FED191B51EC100B53EC112B13F026FD98
:101F90005DD21AAA04A92046FEF73FFE60B39DED6C
:101FA000080B9FED138B51EC100B53EC182B13F017
:101FB00023FE41EC100B53EC102B13F069FB41ECAA
:101FC000190B9DED060B53EC182B16E000000000DA
:101FD000000000000000803788E2002068E1002057
:101FE0000000000000408F4000000000000034406E
:101FF0000000000000C0724029E051EC100B13F00B
:10200000FBFD41EC100B53EC102B13F041FB9DED4D
:10201000040B41EC1A0B53EC182B51EC100B13F082
:10202000EBFD41EC100B53EC102B13F031FB53EC98
:102030001A2B13F047F853EC192B13F043F841EC2B
:10204000100B0BF045FCB0EE408AF0EE608A9FED7D
:10205000FD0B51EC180B53EC102B13F0EFF81CB0E8
:1020600041EC100BBDEC068B10BD10B5E821F74814
:1020700003F0FAFFF648F74920F8BC1F4A0CC2806B
:10208000C181828281834284F048E821E83003F0F4
:10209000EBFFEF490020C1F8B40010BD2DE9F0437B
:1020A000EB4D04462DED108BC3B0006BC5F8A001BD
:1020B0002046FFF7DCFD00287ED1D5F8941105F10C
:1020C000BC08012911D1B4F98C003D90B4F98E00FF
:1020D0003E90B4F990003F903DA9DC48FEF7CBFB61
:1020E00004F18C01404600F0A4FB1FED48DB9FED9E
:1020F000DABB9FEDDBCB9FEDDCAB9FEDDDEBD34E91
:10210000D5F80801E83E002802DD401EC5F80801A8
:1021100096ED300B53EC1D2B51EC100B13F05EFCC5
:102120007DD2CA49E822E839684603F004FFC7486F
:102130003DA9E838FEF79FFBC44940AA20390F4665
:10214000A1F1C800FEF769FD00287BD0BF483946E1
:10215000E838FFF791F9B0EE408AF0EE608A95ED2D
:10216000400B51EC180B53EC102B13F045FD96ED82
:10217000300B41EC190B53EC1B2B51EC100B13F0F3
:102180003BFD41EC100B51EC190B53EC102B13F0F1
:1021900055F841EC100B0BF09BFB96ED30FBB0EECD
:1021A000409AF0EE609A53EC1B2B51EC1F0B13F08E
:1021B00023FD53EC1F2B00E0E9E013F069FA41EC3A
:1021C0001F0B53EC1C2B51EC180B13F061FA53EC62
:1021D0001F2B13F033F841EC100B0BF079FBD5F803
:1021E000E80013F0F3FD95ED381B53EC112B13F0C1
:1021F0004FFA53EC192B13F00FFA03D3D5F808015B
:10220000002826DD9148E8226946E83803F093FE6D
:10221000D5F8E80013F0DAFD95ED381B01E010E089
:1022200010E053EC112B13F033FA53EC192B13F08D
:10223000F3F95CD24FF4FA7001F03CFE0A20C5F8C5
:10224000080154E08148E8226946E83803F073FE4B
:102250004DE0D5F89801012849D1D5F8B400401CCB
:10226000C5F8B40000200FF05FF896ED320B53EC88
:102270001A2B51EC100B13F00BFA13F073F93A9080
:1022800096ED340B53EC1A2B51EC100B13F000FAB3
:1022900013F068F93B9096ED360B53EC1A2B51EC8A
:1022A000100B13F0F5F913F05DF93C9003213AA8F7
:1022B0000EF0ACFF96ED300B53EC1E2B51EC100BD7
:1022C00013F08CFB11D29FED6C0A6049E839F0EEF7
:1022D000400A0846FEF7FFF95C483946E838FFF740
:1022E000CBF8B0EE408AF0EE608A85ED408B208E10
:1022F000564FC0050CD5B4F87400C00508D507F1D9
:10230000E800FFF7EAFDB0EE408AF0EE608A01E0F7
:102310009FED4C8B97ED300B1FEDCD1B51EC100B4F
:1023200053EC112B13F078F931D3484940AAC83146
:1023300089464648FEF771FC00287CD0D4F8AC00F2
:1023400013F03FF941EC100B53EC102B9FED4B0BAE
:1023500051EC100B12F072FF41EC1F0B4846FFF7D7
:1023600004FDB0EE409AF0EE609A53EC1F2B51EC56
:10237000190B13F033FB0BD29FED420B51EC180BF2
:1023800053EC102B13F048F902D2FFF76EFEDBE19D
:1023900053EC1F2B51EC190B13F03EF951D251ECB9
:1023A000180B9FED3A9B53EC192B13F035F9F5D22E
:1023B00097ED300B9FED371B51EC100B53EC112BAD
:1023C00013F00CFBEAD296ED300B53EC1D2B51ECC5
:1023D000100B13F08BF87CD149461C48FFF74CF8E2
:1023E000B0EE408AF0EE608A85ED408B97ED309B31
:1023F00053EC1B2B51EC190B13F0FEFB53EC192B78
:1024000013F046F941EC190B53EC1C2B51EC180B53
:1024100013F03EF953EC192B12F010FF41EC100BA6
:102420000BF056FAB0EE408AF0EE608AD5F8E8007C
:1024300013F0CCFC00E088E195ED381B53EC112B38
:102440002CE078E1000000000000084098DF002048
:1024500068E100200080FFFF000000000000F03F66
:102460000000000000000040000000000000F040FC
:102470000000000000409F406666E63E9A999999E8
:102480009999A941000000000000F83F00000000F9
:10249000000010400000000000003E4013F0F8F87B
:1024A00053EC182B13F0B8F8FFF46FAF9DED400B11
:1024B00049464046FDF7C4FF02283FF466AF0028B6
:1024C0007ED1D5F898010128FAD100200EF02CFF1A
:1024D00000E02FE097ED320B53EC1A2B51EC100B70
:1024E00013F0D6F813F03EF83A9097ED340B53EC16
:1024F0001A2B51EC100B13F0CBF813F033F83B9080
:1025000097ED360B53EC1A2B51EC100B13F0C0F86F
:1025100013F028F83C9003213AA80EF077FE012032
:102520000EF0A0FE192000900190029068460EF077
:1025300091FEF6E0D5F8B40013F043F897ED301BA8
:1025400053EC112B12F07AFE9FEDE71B53EC112B8D
:1025500013F044FAA8D34946E548FEF78DFF97EDFE
:1025600030DBB0EE408AF0EE608A53EC1B2B51EC6E
:102570001D0B13F041FB53EC1D2B13F089F841ECBC
:102580001B0B53EC1C2B51EC180B13F081F853EC84
:102590001B2B12F053FE41EC100B0BF099F9B0EE2F
:1025A00040BAF0EE60BAD5F8E80013F00FFC95EDF4
:1025B000381B53EC112B13F06BF853EC1B2B00E082
:1025C00087E013F029F8C5D39DED400B49464046FE
:1025D000FDF736FF00287CD196ED361B97ED360BC4
:1025E00053EC112B51EC100B13F006FB41EC100BCC
:1025F00053EC102B13F04CF896ED341B97ED340B85
:1026000041EC1B0B53EC112B51EC100B13F0F4FAB3
:1026100041EC100B53EC102B13F03AF896ED321BF3
:1026200097ED320B41EC1C0B53EC112B51EC100BC2
:1026300013F0E2FA41EC100B53EC102B13F028F8D6
:1026400053EC1C2B12F03EFD53EC1B2B12F03AFD09
:1026500041EC100B0BF03CF9B0EE40BAF0EE60BA72
:10266000D4F8AC0012F0ADFF53EC1B2B13F010F8B4
:102670009FEDA01B53EC112B13F00AF841EC1B0B40
:1026800053EC192B13F0AAF91AD39FED9C0B51ECC4
:102690001B0B53EC102B13F0A1F9BFF476AED5F859
:1026A000B40012F08EFF97ED301B53EC112B12F09B
:1026B000C5FD9FED941B53EC112B12F0ADFFECD236
:1026C000D5F8980101287FF460AE00200EF02CFEB2
:1026D00000E039E085ED408B97ED320B53EC1A2B7F
:1026E00051EC100B12F0D4FF12F03CFF3A9097ED32
:1026F000340B53EC1A2B51EC100B12F0C9FF12F0F3
:1027000031FF3B9097ED360B53EC1A2B51EC100B2D
:1027100012F0BEFF12F026FF3C9003213AA80EF003
:1027200075FDF7EE000A9FED790A7149A1F1E80005
:10273000FDF7D1FF29E697ED300B53EC1E2B51EC42
:10274000100B13F04BF9F5D3002043B0BDEC108B08
:10275000BDE8F08370B56E4C0546D4F80C0110B995
:10276000284600F091F8D5F8B01044F62060814278
:102770000ADAD4F8102111448142C4F810114FF044
:10278000000005DBC4F810012846BDE8704085E470
:1027900070BD04224FF4C871AFF247000EF0FABBCF
:1027A000AFF24F000EF0B4BE514810B5E821E83842
:1027B00003F05AFCFFF759FC4FF4D471544803F06E
:1027C00053FC534CB7EE000A04F5907084ED3A0ABE
:1027D00002F095FD0A20C4F87001B2EE000A84ED03
:1027E000570A1E209FED4B0AC4F87C0184ED620A53
:1027F0009FED490A84ED610A9FED480A002084EDAF
:10280000630A10BD10B5FFF7CFFF002805D1AFF266
:102810007D00BDE810400EF045BC10BD10B5AFF214
:10282000CB000EF075FEAFF29500BDE810400EF043
:1028300095BE30B50022C2EBC20331F9124030F927
:102840001350AC420ADD02EB42040D8820F82450FC
:1028500000EB84044D8865808D88A58000EB4303E0
:1028600031F91240B3F906309C4209DA02EB420317
:1028700000EB83030C88DC804C881C818C885C8195
:10288000521C032AD7DB30BD70B5214DD0F8AC20E7
:102890000446EAB1D3170020192103F0FEF845F8E9
:1028A000AC0F54F8AC2F0020D317052103F0F5F836
:1028B000686022680020D317962103F0EEF812F02A
:1028C00080FEC5E90D01AC3D0120C5F80C0170BDCD
:1028D0006FF00040C5F8AC009FED110BC5F8B000DB
:1028E00085ED380BF0E700000AD7A3703D0AE73FFB
:1028F00098DF0020000000000000103E00000000F3
:1029000000000440333333333333C33F000000004F
:1029100068E10020CDCCCC3E3333333F9A99193F48
:102920000000C0FFFFFFDF4110B5FF49C4074FF0B3
:1029300040434FF0804205D08B66CB66C1E91C3224
:102940008A67CA67840709D5C1F80031C1F8043124
:10295000C1E94232C1F81021C1F81421400709D55C
:10296000C1F89831C1F89C31C1E96832C1F8A82199
:10297000C1F8AC2110BD2DE9F14F002082B0824694
:1029800081460298806F00287ED000220020401CE3
:102990000428FCDB029800EBC203D3E90010A1FB82
:1029A0000167D3E9065400FB017701FB0077AB46D2
:1029B000AD1BCDE900670326A5FB06C8A64664EB60
:1029C000070404FB0684002705FB0745DDE90067D3
:1029D0001CEB06047D41A4FB016705FB017504FBAC
:1029E0000055D3E90C47341B65EB0705CDE90045DD
:1029F0005D46A5FB05670324A6FB04580EFB0B7779
:102A00000BFB0E7707FB04844FF0000C06FB0C4415
:102A1000D3E91263761B63EB04034C18A4FB017C1F
:102A200040EB000505FB01C504FB0055A7FB014C6D
:102A300005FB01C507FB0055A4FB017C05FB01C597
:102A400004FB0054F6196341DDE90045AD0045EA99
:102A50009475A400A4FB017C05FB01C104FB0014D8
:102A6000F01B73EB040103D50023404263EB01012B
:102A7000BAEB000479EB010301DA82468946521C65
:102A8000032A83DB504600E016E0494613F0CCF9F8
:102A900000EE900AA54890ED0E1A80EE810A10EE25
:102AA000100A13F03FFAA04AD2F80C2203B09200A9
:102AB000BDE8F04F02F0DEBF002003B00146BDE8E4
:102AC000F08F2DE9F14F0020009A0146926FE2B39A
:102AD00000240022521C042AFCDB009A02EBC405ED
:102AE000AA46D5E90029A2FB023CD5E906769E4616
:102AF000FB1A0325A3FB057809FB02CC02FB09CBDB
:102B000066EB0B0606FB05854FF0000C03FB0C562D
:102B100017EB0E03A3FB027C46EB0B0606FB02C27F
:102B200003FB0923DAE90C25BA1AAB4103D50025CA
:102B3000524265EB0303851A71EB030501DA104677
:102B40001946641C032CC4DB00E015E013F06CF99B
:102B500000EE900A754890ED0E1A80EE810A10EE94
:102B6000100A13F0DFF9704AD2F80C22BDE8F84FD2
:102B700002EB420202F07EBF00200146BDE8F88F62
:102B80002DE9FE43684D80460024D5F810626F465B
:102B900005EBC4013246D1E9020102F058FF05EB12
:102BA0008401B1F884100904401847F8240004F1A6
:102BB0000104032CECDB5C489821083003F054FA44
:102BC0000120FFF7B1FE95F8E8010199042807D12B
:102BD000D5F81802B0F5201F02DD052085F8E801C0
:102BE000524C0098636AC11A01D40E4600E01E1AC6
:102BF0000198A26A801A01D4074601E0019FD71B01
:102C0000BE4206DD002901D4084606E00098181AE5
:102C100003E0002801D50198101A029AE16A521ABD
:102C200001D4134601E0029BCB1A834205DB002A44
:102C300001D4104601E00298081AD8F824100DF0CB
:102C400064FFD5F81812814206DD032168460EF0B4
:102C5000B1FB02200EF000FC009860620198A062B7
:102C60000298E062BDE8FE83304AC2E90201704783
:102C70002E4AC2E9060170472C4AC2E90401704796
:102C8000294AD2F8E0310360D2E97402C1E90002B6
:102C90007047254AD2F8E0310360D2E97602C1E9F3
:102CA000000270472DE9FE4781460020EA468A6F00
:102CB00022B901EB800339F91020DA6701EB8002B9
:102CC00039F91030D46F1D1B4AF82050136E9D4205
:102CD00000DD1566D36E9D4200DAD566012300241F
:102CE00022464FEAE578A3FB056704FB057403FB66
:102CF0000844334602EB420601EBC60606EBC00C65
:102D0000DCE90076FF186641CCE90076521C042A03
:102D1000E9DB401C0328CADB886F401C8867012060
:102D2000C1F89000BDE8FE8710E3002070E50020A8
:102D300030B5002302EB830550F823405B1CEC66A2
:102D4000032BF7DBC2F88810916F79B1002102EBF9
:102D5000810450F82130E56F5B1B00D55B42256E86
:102D60009D4200DA2366491C0329F0DB906F401C6A
:102D700090670120C2F8900030BD10B500210B46CD
:102D800000EB8102491CD46ED46713660329F7DB7C
:102D9000D0F8881040F8783FC0E9051310BDD0E99D
:102DA0002210081A70470146D1E91802824200DB5E
:102DB0001046896E814200DB084670472DE9F047D6
:102DC0008046501E012686408946C2F120074046B3
:102DD00002F050FE04460D46404649463A4602F08F
:102DE00036FE3A4602F046FEB04203DD641C45F171
:102DF000000505E07142884202DA641E45F1FF35A4
:102E000020462946BDE8F087F7490020086248625D
:102E10008862C862086448648864C8640863486358
:102E20008863C863086548658865C865704730B5BC
:102E3000EE4AD2F8483223B1D2E990542D1A8C418F
:102E400001DAC2E990015B1CC2F8483230BD30B5EE
:102E5000E64AD2F8583223B1D2E994542D1A8C4163
:102E600001DAC2E994015B1CC2F8583230BD30B5BA
:102E7000DE4AD2F828322BB1D2E98845041B71EB27
:102E8000050401DAC2E988015B1CC2F8283230BDB2
:102E900030B5D64AD2F838322BB1D2E98C45041B72
:102EA00071EB050401DAC2E98C015B1CC2F838320F
:102EB00030BD2DE9F0470246CC4801250830804658
:102EC000C36E016E046FC91A436E1B1B8B4200DB7D
:102ED0001946836ED8F87400181A884200DB014640
:102EE000C14F6037F86B884204DA002400F010FA12
:102EF000204687E7108E0124BC4EC0054FF000012C
:102F00000ED5D6F880303068834209DBB2F87420E1
:102F1000D20506D5D6F8B021824201DB052400E0B7
:102F20000C4674B3600719D5AF48C8388146FFF71F
:102F300022FD000D40EA01300915C6E97601D7E906
:102F400004321B1A8A4102DA0025FFF7A1FF9821FB
:102F5000484603F089F80420FFF7E6FCE0070ED0AE
:102F60004046FFF708FDC6E97C01D7E90634024672
:102F7000181A8C4103DA00251046FFF778FF28461F
:102F800040E7FFE702203DE71EB5044690F8300019
:102F9000C0F38110032804D19449201D0831FFF7A4
:102FA00081FE94F87400C0F38110032805D18E4986
:102FB00004F14800C839FFF775FED4F8B8008B4A11
:102FC000C0F38113A0326946032B0FD0C0F3411028
:102FD00003281AD1002004EB8003D3F8A0309B1300
:102FE00041F82030401C0328F5DB09E0002004EB09
:102FF0004003B3F98C3041F82030401C0328F6DB45
:103000006846D4F8C010FFF793FE1EBD2DE9F047C7
:1030100005460020296BCA056AD501F050014029F8
:1030200000D1012095F8741001F05001402900D121
:10303000012095F8B8106D4C01F05001402900D0E6
:1030400030B100F065F90020C4F8E00184F8E8012F
:10305000654ED4F80812E86A6036814228D0C4F878
:1030600008020A28306B0CDA40002060716B00EE19
:10307000100A491CC4F80C12B8EEC00A0AF065FC2C
:1030800005E02060706BC4F80C0296ED0E0A84ED2A
:10309000850AD4F80C02C0F11000C4F810024FF4F5
:1030A0008040C4F8180296F8341019208840F06364
:1030B0002846FFF769FF94F8E811DFF830910527FB
:1030C0004FF0020809F1A009072911D2DFE801F049
:1030D000041127305E7E8500D4F8E001411CC4F85D
:1030E000E0110A2804DB00F013F9012084F8E8015C
:1030F00086E0D4F89800012810D12846FFF7D9FEC1
:1031000010B1012803D004E084F8E87101E084F8EC
:10311000E8814846FFF731FEFFF776FE70E00320B6
:1031200084F8E8012846FFF72BFD00F0F1F867E08E
:103130002846FFF7BEFEE8B3012861D1B5F8B80014
:103140004FF00403C00515D54846FFF72CFE014695
:10315000C017C4E97410D6E902C2BCEB0101824178
:1031600002DA84F8E87108E04846FFF718FE316A91
:10317000884202D384F8E83124E0F4E97601FFF7CD
:1031800066FED4E90601FFF752FE39E0B5F8B80053
:10319000C0050BD54846FFF706FE0146C017C4E937
:1031A0007410D6E90232591A824108DB2846FFF72B
:1031B00080FE00E003E010B1012803D020E084F895
:1031C000E8711DE02846FFF7DBFCD6E7062084F80F
:1031D000E80101200EF040F90DE02846FFF769FEF6
:1031E000012805D038B10BE010E5002010E30020E5
:1031F00084F8E88104E000F08BF84846FFF7BDFD55
:103200000020FFE510B500214010002802D001F198
:103210000101F9DC4FF0010001F1010100FA01F0B8
:10322000434C00EE100AC4E90C01B8EEC00A0AF0E3
:103230008CFB84ED0E0A94F8341019208840E0636A
:1032400010BD10B54FF418713A4802F00DFF40213F
:10325000374802F009FF0720FFF766FB344840F2C9
:10326000DC510022C0E906121421C0E902124FF419
:103270001671C0E9041230492E4C01620120C4F8D5
:10328000E4011920FFF7BEFF0020C4F8080210BDBA
:1032900010B54FF41871274802F0E6FE0720FFF73B
:1032A00043FB244801210022C0F8E41180F8E81112
:1032B000032101200EF0C6F807226421AFF2B320EB
:1032C000BDE810400DF066BE10B501200EF0C4F848
:1032D000AFF2C720BDE810400EF01AB910B5FFF7E5
:1032E000B0FF002805D1AFF25700BDE810400DF047
:1032F000D9BE10BD10B5FFF7E7FFAFF26B00BDE818
:1033000010400EF02BB90B49D1E97C017047704792
:10331000084810B59821083002F0A6FE9821074809
:1033200002F0A2FEBDE810400520FFF7FDBA000044
:1033300070E5002010E300200008AF2F48E40020D3
:10334000F0B516462DED028B85B01F460C4605469E
:103350003C22FE49A1F10C0002F01FFEFB49502265
:103360004C31A1F1100002F018FEF84996E80D006A
:103370000C3901F13C0C8CE80D005CCC01F198009B
:1033800080E85C009FEDF28AD1F82401401CC1F86E
:103390002401062802DD0620C1F82401C0F106063A
:1033A0000C46A0351AE004EB06116A46384648314F
:1033B0000DF007FC06EB460004EB80016A46284648
:1033C0000CF0EAFEF0EEC00AB0EEC81AF4EEC10A44
:1033D000F1EE10FA01D2B0EE408A761C062EE2DB46
:1033E00005B0B0EE480ABDEC028BF0BD70B51446D6
:1033F0002DED048B0E46B0EE408A00259FEDD59A48
:10340000416BF0EE498A002904DBD0F8BC000328A8
:1034100000D10125CD492422B431081F02F0BDFDA1
:10342000CA480C38002380ED388A00EB83015B1C0E
:1034300091ED2F0A0A2B70EE288AF6DBB2EE040A11
:10344000C822C8EE800AC0ED390A9FEDC31A322E99
:103450001DDB9FEDC20AC0F81C21B6F57A7FC8EECD
:10346000001A00EE104AB8EEC00A61EE801A81EE32
:10347000810A2FDB9FEDBA0AC8EE001A00EE104A4F
:10348000B8EEC00A61EE801A81EE810A22E041F2B4
:10349000883194FBF1F14942D0F81C3101EB8101F4
:1034A000C918C0F81C1102D50021C0F81C119FEDED
:1034B000AD0AC8EE001A00EE104AB8EEC00A61EE7E
:1034C000801A81EE810A29B9D0F82811012901D189
:1034D000B0EE490AD0F8201109B1B0EE480AA2496D
:1034E0008C4201D1B0EE480AB5EEC00AF1EE10FAF6
:1034F00001D0C0ED3A0A90ED3A1A9C4B71EE600A89
:10350000F0EEE00A10EE901A994227DDD0ED2E0A77
:10351000F5EEC00AF1EE10FA20D1002D1ED0C0F851
:103520001C21204612F04DF841EC190B18EE100A40
:1035300012F04CFC9FED8E1B53EC112B11F07EFE14
:1035400053EC192B12F0A4F89FED8B1B53EC112BAD
:1035500011F074FE11F084FD00EE100ABDEC048B36
:1035600070BD2DE9F04F04462DED048BA9B09FED01
:10357000799A4FF0000A754ECDF810A00C3ECDF8A8
:1035800014A0CDF818A0D6F82011022003297DD070
:1035900000209FED7B8A20AD06EB800191ED2A0A89
:1035A00005EB8001401CB8EEC00A042820EE080A92
:1035B00081ED000AF0DB0FA80CF066FF24A80CF0E8
:1035C000C7FF624B24AA9C330FA920462793FFF71D
:1035D000B7FEF0EE408A04F118000DF017F88109EB
:1035E0006148D6F83021824200DB0246B0EE680A1C
:1035F0002046FFF7FBFED6ED3B0AB3460BA820EEB4
:10360000200A86ED2E0A0CF03FFF13A90BA80DF03F
:1036100053FC4E480FAAF0300BA906460DF0D1FA24
:1036200031460BA80DF0AAFA00210DF13C080DF16E
:103630004C090DF1100E00221346104601EB410C0F
:103640000CEB000759F8276008EB8007401C7F68E7
:103650000328C6FB0723F3DB900F40EA83004EF8F4
:103660002100491C0329E6DBDBF820015E46002827
:103670006AD05046CDF818A0404200EE100AB8EECD
:10368000C00A20EE080A08F0B7FE00E0A2E08DEDC7
:10369000000A8DED019A8DED029A0698404200EEE7
:1036A000100AB8EEC00A20EE080A0AF049F88DEDBB
:1036B000030A9DED060ADFED330AD6F83001B8EEB5
:1036C000C00A41F2883190FBF1F080EE201A00EE42
:1036D000100AF8EEC01A81EE210AB0EE001AC0EE10
:1036E000011ABDEEE10A10EE101A490000EE101AA0
:1036F0000691B8EEC00A60EE200A00EE100AB8EE9D
:10370000C00A20EE800ABDEEC00A8DED060AB8EEB2
:10371000C00A20EE080A08F06FFE8DED070A8DED55
:10372000089A8DED099A9DED060AB8EEC00A20EEC2
:10373000080A0AF005F88DED0A0A1CAA694620A8B5
:103740000DF097FA6A461FE04BE00000BCE5002050
:10375000002474490000000000409C4500004843DC
:10376000000048420000C84340420F000E2DB23D09
:103770000000000000007940000000000088B34015
:1037800000008030E102374707A91CA80DF071FA4C
:103790006F46DFED958AD4F8BC00002813DD0020C9
:1037A00007EB800191ED000A05EB800181ED000A35
:1037B00020EE280A06EB8001401C0428BDEEC00A5A
:1037C00081ED2A0AECDBD4F8BC00F6EE009A03285F
:1037D0000CD108E0C6F8200129B0BDEC048BBDE88F
:1037E000F08F069848E700F03DFEE0B396ED2A0A18
:1037F000B8EEC00A20EE080A8DED1C0A96ED2B0AE1
:10380000B8EEC00A20EE080A8DED1D0A96ED2C0ACE
:10381000B8EEC00A20EE080A8DED1E0A96ED2D0ABC
:10382000B8EEC00A20EE080A8DED1F0AD6F8200176
:103830000028D1D096ED2E0A20EE290A08F0DCFDF2
:1038400020EE280ABDEEC00A86ED2A0AC6F8ACA012
:10385000C6F8B0A096ED2E0A20EE290A09F070FFF6
:1038600020EE280A00E004E0BDEEC00A86ED2D0A35
:103870002BE096ED2E0A20EE290A08F0BDFD8DED15
:10388000070A8DED089A8DED099A96ED2E0A20EE25
:10389000290A09F055FF8DED0A0A6A4607A920A8F2
:1038A0000DF0E7F968460DF08FFA002007EB800174
:1038B00091ED000A06EB8001401C20EE280A042846
:1038C000BDEEC00A81ED2A0AF0DBD4F8C0102798BB
:1038D0000DF0CEFCD6F820010028AAD0401E79E7D2
:1038E00070B590F8B810414ACC064FF000034FF085
:1038F000030101D4C2E94813B0F82041E40509D41A
:10390000048EE40503D5B0F87440E40502D4C2E99E
:1039100048131AE0D2F8341139B1D0E93013C91A7A
:103920004FF47A73B1FBF3F105E0D0F8B01044F630
:103930002064A14202DBC2F830110AE0D2F82C5117
:103940002944C2F82C11A14201DA002070BDC2E95D
:103950004B31FFF706FEF8E710B54FF49C71234892
:1039600002F082FB214C4FF080400021C4F8FC00A3
:1039700044F8A80F1D48A8300DF07AFC4FF47A7077
:10398000B7EE000A606784ED110A10BD174880ED9C
:103990003B0A002070471549C1F8280100207047F4
:1039A0001249C1F834010020704704224FF4167107
:1039B000AFF2D3000DF0EEBAAFF2DB000DF0A8BD10
:1039C00010B5FFF7C9FF09490020C1F82801C1F867
:1039D0003401AFF22900BDE810400DF063BBAFF237
:1039E00035000DF0BBBD00000000804EB0E50020AA
:1039F0001FB501461022684602F058FAF7489DE8C4
:103A00000E0080E80E00F6499DF80C0081F8B00128
:103A1000002004B010BD1FB5F0490EC98DE80E009E
:103A2000EF49102291F8B0118DF80C10694602F0A0
:103A30003DFA0020EDE72DE9F04F91B00025182167
:103A4000684602F011FB0024182106A802F00CFBC6
:103A5000E348A046C14690F8C01101297ED1D0F8B4
:103A6000B8B1D0F8B4A10022C2EBC20000EB400113
:103A7000DB4800EB810E9EF850000F90002864D0C8
:103A800000215FE0DDE900076D1C5EF821300E9338
:103A9000181847EBE376CDE900060EEB8100EDB296
:103AA00043690D93DDE9027C4FEAE376DB1946EBCF
:103AB0000C06CDE90236836ADDE9047CDE170C933F
:103AC000DB1946EB0C06CDE90436C06B0E9BDDE935
:103AD000067C83FB0063360C46EA0346F6194CEB82
:103AE0002343CDE906630D9BDDE9087C83FB00637E
:103AF0004FEA164646EA0346F6194CEB2343CDE956
:103B000008630C9BDDE90A7C83FB00634FEA1646E1
:103B100046EA0346F6194CEB2343CDE90A6380FBE2
:103B200000634FEA164646EA034616EB080849EBDF
:103B300023490444584501DA834602E0504500DD3C
:103B40008246491C0F9888429CDC521C052A8BDB5C
:103B5000A348AAEB0B01D0F8BC0100E056E081427B
:103B600054DBA5FB0823E0170026109006FB083065
:103B700005FB0900CDE90C2084FB0420110C41EA6F
:103B800000410014CDE90E0106A800EBC601D1E901
:103B90000003A0FB05B203FB0522002100FB012C62
:103BA000684600EBC601D1E90001A0FB043701FB28
:103BB0000471109A00FB0210190C41EA00490CAA8A
:103BC0004FEA204A92E889000F9983EA070880EAC1
:103BD000010252EA080212D0421A63EB0703BBEB60
:103BE00009006CEB0A0C4FEA0C4141EA1041000459
:103BF00001F053FF7A4901EB8601C1F8A401761C5C
:103C0000032EC1DB7648012180F8B01111B00020ED
:103C1000BDE8F08FF8B5724D0E460446D5E96D014A
:103C2000091A052291FBF2F1301A90FBF1F0C0B2B3
:103C30008DF80000042801D92020F8BDC0EBC00099
:103C400000EB400005EB800191F85000052816D0EC
:103C5000421C81F850209DF80010C1EBC10101EB1E
:103C6000410105EB810202EB8001CE63236842F83B
:103C7000203060684861A06888620020F8BD01F1CA
:103C80004003181F1022194602F087F99DF8000022
:103C90001022C0EBC00000EB400005EB8000011DCE
:103CA00002F07BF99DF800001022C0EBC00000EB91
:103CB000400005EB800000F11801143002F06DF9AE
:103CC0009DF800001022C0EBC00000EB400005EBA7
:103CD000800000F12C01283002F05FF90420BAE7DF
:103CE00030B585B0044603A968460CF069FC04A809
:103CF0000CF018FD02282BD0D4F8E4000399401AE8
:103D0000374991F8B02112B308B3D1F8A421009C2F
:103D100080FB0232150445EA134222440092D1F896
:103D2000A821019C80FB0232150445EA134222447B
:103D30000192D1F8AC11029A80FB0110030443EA0E
:103D4000114010440290032168460DF033FB0CE053
:103D5000606B032809D10CF045FC30B1684603992B
:103D6000FFF758FF08B9FFF766FE05B0002030BD29
:103D700010B54FF4E2711A4802F076F91848194963
:103D8000C0F8B4114FF4AA01C0F8B8114FF4A02143
:103D9000C0F8BC11012180F8C011002010BD1049ED
:103DA000C1F8B801002070470D49C1F8B4010020E6
:103DB00070470B49C1F8BC010020704758B1084951
:103DC000D1F8A4210260D1F8A8214260D1F8AC1149
:103DD0008160002070470520704700008CE80020BB
:103DE000E8E600200000D8FF2420F5E720B12D49A7
:103DF00081F8C0010020EFE72420EDE7294B93F87C
:103E0000B1010028E8D0D3E96D10401A052190FBDC
:103E1000F1F00020C0EBC00101EB410103EB810197
:103E200091F8502022B1002100E0491C8A42FCDCBC
:103E3000401C0528EEDB0020CEE7082296211A4818
:103E40000DF0A8B818480DF063BB10B5FFF790FF50
:103E50004FF49A731022154915480DF0EFF820B968
:103E6000AFF229000DF01EF908B1012010BD0D4977
:103E7000012081F8B101002010BD10B5094C94F863
:103E8000B101002808D008480DF042FBAFF2550000
:103E90000DF064FB08B1012010BD002084F8B101D1
:103EA00010BD0000E8E60020E13C0008173A0008D9
:103EB000F1390008002803DDFE490122C1E9200292
:103EC0000020704710B5B821FA4802F0CDF89FEDF8
:103ED000FA0AF84880ED030A9FEDF80A80ED020A1D
:103EE0009FEDF70A4FF0804180ED000AB3EE0E0A15
:103EF00080ED010A41664FF4FA619FEDF20AC16755
:103F000080ED270A002010BD70B5EA4C002594ED25
:103F1000001AB4EEC01AF1EE10FA17D394ED011A9C
:103F2000B4EEC01AF1EE10FA10DC2069012817D1A6
:103F300094ED030AB4EEE00AF1EE10FA06D394ED24
:103F4000020AB4EEE00AF1EE10FA09DD606F20B962
:103F5000D848A16D18300DF08BF90120C4E91D057A
:103F6000D4E91E01884204DB606F012800D1E565B9
:103F7000656770BD10B504462DED028BB0EE408A2A
:103F80000CF08CFACB49002220B918EE100ACE4B67
:103F9000984202DD0A614A6102E00869002808D1FE
:103FA000486920444861B0F5FA7F02DD0120C1E98B
:103FB0000402BDEC028B10BDF0B58DB00D46144669
:103FC000064669460CF078FF09AA314628460CF0EF
:103FD000F8FD294630460CF0D1FD0021EC460DF1EC
:103FE000240E00231A46184601EB41073D180EEB3C
:103FF00080065CF825507668401CC5FB0632032815
:10400000F4DB980F40EA820044F82100491C0329A0
:10401000E7DB0DB0F0BDA7490020C1F88C00704768
:1040200010B590ED000AD0ED010AB8EEC00AB8EE66
:10403000E01AF8EEE00A20EE000A01EE200AD0EDC8
:10404000020AB8EEE01AF8EEE00A01EE200A09F0E2
:104050007CFCDFED9E0A20EE200A10BD002295496F
:10406000012330B1012810D0C1F8983041F88C2FCD
:1040700031E081ED280A81ED290A9FED950A81ED55
:104080002A0AE1E924328A607047D1ED280A91EDCD
:10409000271A70EE600AF0EEE00AF4EEC10AF1EEC3
:1040A00010FA16D2D1F89400401CC1F89400D1ED5A
:1040B000290A312830EE800A81ED290AE4DD022048
:1040C000DFED840AC1F8900080EE201A81ED2A1AF3
:1040D000704741F8902F4A6070472DE9F0479846A5
:1040E0002DED088B8AB017468A4604469FED788AE4
:1040F0000025704E039504950595D6F88800002894
:104100007DD00CF07BFA10B103A80CF04BFAD6F876
:1041100080004FF00109002817DDC6F884900CF0EC
:104120006DFA48B103A80CF071FA8009B0F5C87FA8
:1041300002D2D6F8800004E0D6F88000001BC6F852
:104140008000002801DCC6F884500CF039FC0028FF
:1041500055D000209FED5D9A57F8201000EE101A00
:1041600058F82010401CB8EEC00A032860EE090A77
:1041700000EE101AB8EEC00A20EE800A00EE098A9E
:10418000EADB3846FFF74CFFF0EE408A4FF07E57EF
:1041900088EE280AF7EE00AA10EE100AB84201DDF8
:1041A000B0EE6A0A10EE100ADFF82C81BFEE00BAFA
:1041B000404501D9B0EE4B0A07F056FDD6F88C0009
:1041C000B0EE40AA98B196ED000AB4EEE80AF1EE1E
:1041D00010FA0CDD96ED010AB4EEE80AF1EE10FAE1
:1041E00005D2B0EE4A0AD6F89000FFF737FF6846CE
:1041F0000CF082FA2F490C22AC31684600E0E2E074
:1042000001F028FE18B9D6F8980001286BD129488A
:104210009DE80E00AC3080E80E00009818B90198B7
:1042200008B90298F0B36846FFF7FAFEB0EE408A8C
:10423000B5EEC08AF1EE10FA55D0F2EE049A38EEDF
:10424000690A20EE000A09F080FB86ED010A38EECB
:10425000290A20EE000A09F078FB86ED000A9DEDA0
:10426000020AB8EEC00A60EE090AB0EE480A80EE13
:10427000808A18EE100AB84201DDB0EE6A8A18EEA4
:10428000100A404501D9B0EE4B8AB0EE480A07F05B
:10429000EBFCD6ED270A30EE600A86ED020AB0EE9E
:1042A000480A00E024E007F0DFFCD6ED270A30EEF4
:1042B000200A14E0ACE800200000B4420000B4C2C0
:1042C000000070427B142E3E00401C4600008037E8
:1042D0000000000000004842000080BF03E086EDBF
:1042E000030AC6F88C50DFF88481F16D21B32FE00A
:1042F0001FED0D0A86ED000AB3EE0E0A86ED010AE7
:10430000D6F89800012808D01FED140A86ED020A9D
:104310001FED170A86ED030AE5E796ED2A0A96EDEA
:10432000271A70EE410A30EE010AC6ED020A86ED48
:10433000030AC6F89850D6E70027C6F85C9006EB4B
:104340000710414618300CF0DBF87F1C042FF6DB19
:10435000464906AA0C310F465046FFF72DFE394656
:1043600050460CF00BFC03A80CF050F900EE100ABC
:10437000DFED3F0A2046B8EE400A20EE200AFFF7A4
:10438000F9FDF0EE4A0AB0EE680AFFF7BDFDD6E986
:104390001E01884201DA2044B067706F90B9306E18
:1043A00020443066B0F57A7F0CDD30493022303958
:1043B000A1F11000356601F0F0FD2C48414610389F
:1043C0000CF09EF8706F0AB0BDEC088BBDE8F0876A
:1043D00070B588B0044604A80CF0BAF8D4E93001EE
:1043E000451A68460CF050F8064604AB04F1A002EA
:1043F00069462846FFF771FE0CF04AFF08B03046C8
:1044000070BD04224FF49671AFF23B000CF0C2BDB8
:10441000AFF243000DF07CB810B5FFF753FD002854
:104420000DD1124800215838C0F88C100121C0F875
:104430008810AFF23100BDE810400CF033BE10BD63
:1044400010B5AFF273000DF063F8AFF27B00BDE87A
:1044500010400DF05DB8054901205839C1F88C00B5
:104460000020704701485838406F704704E9002029
:104470000000803CF0B51D462DED028B99B090ED0B
:10448000000AD0ED010A1746B8EEC00AB8EEE01AED
:10449000F8EEE00A0E4620EE000A044601EE200A7D
:1044A000D0ED020AB8EEE01AF8EEE00A01EE200ABA
:1044B00009F04BFAF0EEC00A10EE900AB0F18D4F01
:1044C0007EDDD6ED000AB8EEE01ADFEDFE0A21EE41
:1044D000201A8DED041A96ED011AB8EEC11A21EEDC
:1044E000201A8DED051A96ED021AB8EEC11A21EECA
:1044F000201A8DED061A96ED031AB8EEC11A61EE78
:10450000200ACDED070A9FEDF08A10AA8DED0C8AE6
:10451000D4ED000A0CA904A8F8EEE00A80EE801A97
:104520008DED0D1AD4ED010AF8EEE00A80EE801A46
:104530008DED0E1AD4ED020AF8EEE00A80EE801A34
:104540008DED0F1A0CF095FB14A904A80CF022FBBA
:104550006A4614A910A80CF08CFB9DED021ADDED43
:10456000010ADA4921EE010A00EEA00A10EE100A53
:10457000884202DA9FEDD60A11E010EE100AD54902
:10458000884202DA9FEDD40A09E010EE100AD349FE
:10459000884202DAB5EE000A01E09FEDD10A01EE91
:1045A000907AB8EEE12ADFEDCF2A8DED088AC2EECF
:1045B000221A21EE800A21EE001A8DED091A00E080
:1045C00038E020EEC00A6A4604A98DED0A0A8DED96
:1045D0000B8A08A80CF04DFB6A4604A910460CF0A3
:1045E000ACFA68460CF0AEFBDDED000A9FEDBE0AAA
:1045F00060EE800AFDEEE00AC5ED000ADDED010A7D
:1046000060EE800AFDEEE00AC5ED010ADDED020A6A
:1046100060EE800AFDEEE00AC5ED020ADDED030A58
:1046200020EE800ABDEEC00A85ED030A19B0BDEC8C
:10463000028BF0BD96E80F0085E80F00F6E72DE944
:10464000F0410C462DED068B054690ED000AD0EDAD
:10465000010AB8EEC00AB8EEE01AF8EEE00A20EE61
:10466000000A01EE200AD0ED020AB8EEE01AF8EED8
:10467000E00A01EE200A09F068F910EE100A4FF086
:104680007E5800264FF0804740453FDDD5ED020AB9
:10469000B7EE009AF8EEE00AC0EE808A39EE680ABA
:1046A0009FED89AAB5EEC00AF1EE10FA01DCB0EE7A
:1046B0004A0AF6EE009A20EE290A09F046F9B0EE11
:1046C000408A38EE890AB5EEC00AF1EE10FA01DC34
:1046D000B0EE4A0A20EE290A09F037F9F0EE408AD6
:1046E00095ED000AB8EEC00A60EE000A95ED010AE9
:1046F000B8EEC01AB8EEC00A41EE000AB0EE600A89
:1047000009F023F910EE100A404503DCC4E90076F5
:10471000A66025E0DFED740A28EEA01ABDEEC11AEE
:1047200084ED001A95ED011AF8EEC11A81EE801A97
:1047300021EE081A61EE200AFDEEE00AC4ED010A3E
:10474000D5ED000AF8EEE00A80EE801A21EE080AA4
:10475000DFED660A20EE200ABDEEC00A84ED020AF3
:10476000E660BDEC068BBDE8F08170B590ED000A07
:10477000D0ED010A0546B8EEC00AB8EEE01AF8EE30
:10478000E00A0C4620EE000A01EE200AD0ED020AF3
:10479000B8EEE01AF8EEE00A01EE200AD0ED030AC6
:1047A000B8EEE01AF8EEE00A01EE200AB5EEC00A13
:1047B000F1EE10FA07D84FF08040206000206060D2
:1047C000A060C86070BD09F0C0F8B7EE001AC1EE75
:1047D000000A9FED450A20EE800AD5ED000AF8EEAA
:1047E000E00A60EE800AFDEEE00AC4ED000AD5EDB5
:1047F000010AF8EEE00A60EE800AFDEEE00AC4ED80
:10480000010AD5ED020AF8EEE00A60EE800AFDEE3C
:10481000E00AC4ED020AD5ED030AF8EEE00A20EE44
:10482000800ABDEEC00A84ED030A70BD70B504466F
:1048300090F8300088B040067ED5A069002801DBE2
:10484000014600E041424FF480320026284D91425B
:104850000BDAE169002900DA4942914205DA216A5E
:10486000002900DA4942914267DB002800DA404221
:104870004FF4C80188420BDCE069002800DA4042AE
:10488000884205DC206A002800DA4042884201DDC7
:10489000032000E00220A863696BA06A814242D035
:1048A000686394ED0A0A9FED131AF8EEC00A80EED1
:1048B000810ADFED110A20EE200A10EE100A11F035
:1048C00085FA1BE0000080300000000017B7513966
:1048D000A69BC43B0AD7233C8FC2753DCDCC4C3E32
:1048E000CDCCCC3E0014CD470000804E000080CEE1
:1048F00064E90020002474490000004E9FEDFA1B7B
:1049000053EC112B10F0C4FE9FEDF91B53EC112B4F
:1049100010F0BEFE9FEDF81B53EC112B10F08EFC37
:1049200010F020FE28630496296BA0690CF0EDF8C6
:104930000590296BE06901E022E023E00CF0E5F846
:104940000690296B206A0CF0E0F807906A4604A9EB
:10495000EB480CF036F90098E94A80010090019884
:1049600069468001019002988001029003988001BD
:10497000039010460CF0CFF8E1490846FFF7F5FE2A
:1049800008B070BDAE63FBE770B504462DED048B37
:104990008EB0D0F82001410676D5D94DD4F810114B
:1049A000D84B2A68891AD4F82C215A438A4201DA52
:1049B000032100E00221A963800504F5887602D571
:1049C000CF493046B5E0002107A80BF0F9FDCC49EE
:1049D0000C223C3107A801F03DFA20B9D4F8280197
:1049E000A96D88427ED020886B4680B207AA616A92
:1049F0000BF028FC9DED000ADDED010AB8EEC00ABF
:104A0000B8EEE01AF8EEE00A20EE000A01EE200A05
:104A1000DDED020AB8EEE01AF8EEE00A01EE200A37
:104A200008F093FFB0EE408A9FEDB70A68EE000AE7
:104A30009FEDB61A80EE810ADFEDB50A20EE200A5E
:104A4000D4ED4A0AF8EEE00A60EE800A1FED571A2C
:104A500080EE810AF6EE000A20EE209AB0EE490AB6
:104A600007F0CAFCF0EE408AB0EE490A08F068FE92
:104A700018EE100A4FF08041884206DA0020C5E99E
:104A800012102865686532E055E05FED690A68EE4E
:104A9000A00AFDEEE00AC5ED120A5FED6C0A20EEF9
:104AA000200ADDED000AF8EEE00A60EE200A80EE52
:104AB000881AFDEEC10AC5ED130ADDED010AF8EE14
:104AC000E00A60EE200A80EE881AFDEEC10AC5ED0C
:104AD000140ADDED020AF8EEE00A20EE200AC0EE2C
:104AE000080A00E00DE0BDEEE00A85ED150A07AB0F
:104AF00093E8070005F13C0383E80700D4F8280198
:104B0000A8657F4903AA483130460CF05AF87C4822
:104B10000AAA5C3003A904460CF053F8214630463B
:104B20000CF02CF803AA0AA975480CF04AF874494D
:104B300003A8FFF71AFE0EB0BDEC048B70BD1FB5C5
:104B4000044669466E480CF019F86D4A69462032F1
:104B500020460CF036F86A491DCC103181E81D0062
:104B60001FBD2DE9F0470446654E90F8740006F12C
:104B70005C0A06F12008012500F05001103692B0C1
:104B800004F5887904F15C07402906D094F82001E7
:104B900000F0500040280DD01DE031463846FFF7A8
:104BA0004EFDB4F82001C0050CD5514648460BF027
:104BB000E5FF07E0514648460BF0E0FFB4F874000B
:104BC000C00508D569464E480BF0D8FF42466946F5
:104BD00030460BF0F6FFB4F82001C005204602D5A0
:104BE000FFF7D2FE01E0FFF721FE3246444940467E
:104BF0000BF0E7FF94F8740040066FD5208EB4F8F0
:104C000020110843C0056DD50FAA394630460CF077
:104C100033F9D4E9172080FB0001C2FB0201626E68
:104C2000374FC2FB02014FF08042801A71F102003F
:104C300014DB04A80BF020FDDDE9042080FB00015B
:104C4000C2FB0201069AC2FB02014FF08042801AA9
:104C500071F1020002DB0420B8630BE0B86B04289A
:104C600008D041F28832022806D0032804D0012857
:104C700052D009E0002507E0E16E91FBF2F5012D2D
:104C800000DA0125032800D0AD0022480024454366
:104C900010980794800229460BF037FF08900F9870
:104CA0002946404280020BF030FFCDE909040BAAEF
:104CB000314607A80BF085FF32460BA910460BF0D2
:104CC0002AFF31460846FFF750FD69460C480BF0B5
:104CD00055FF4246694630460BF073FF12B0002084
:104CE000BDE8F08720E00000112D4454FB2109406D
:104CF00000000000000070400000000000806640DE
:104D000064E9002071981C00DB0F49400000344327
:104D100000008037A69BC400E06E90FBF2F00128F3
:104D200000DA01204500AFE7334619463846E26E07
:104D3000FFF7A0FBC9E770B50446008EC105D4F8A3
:104D4000200107D4B4F87410C90503D4C10501D4F7
:104D5000002070BDC0F30120032807D02046FFF7D4
:104D600000FF2348A16B0CF0C3FBF1E704F5887149
:104D70001F482EC980E82E00F3E71E480CF0C8BB80
:104D80001B4810B56C21103801F06EF918484FF02F
:104D900080411038016101600162C163C16500207A
:104DA00010BD184810B5082213A1006801F052F890
:104DB00008B1322010BD1322BDE81040C8210D48B3
:104DC0000CF0E8B810B5FFF7DBFF002805D1AFF213
:104DD0002D00BDE810400CF065B910BD10B50548B8
:104DE0000CF096FBAFF24500BDE810400CF0B6BBEE
:104DF00074E90020374D0008654D504C20352E31A8
:104E000000000000040D002000209FEDFE0AFE4A75
:104E1000DFEDFE0A02EB8001401C81ED080AC0B202
:104E2000C1ED0B0A0328F5D37047F74A002002EBC7
:104E30008001D1ED080A91ED2D0AF4EEC00AF1EEE1
:104E400010FA01D281ED080AD1ED0B0AF4EEC00A86
:104E5000F1EE10FA01DD81ED0B0A401CC0B203280F
:104E6000E5D370473EB50B46B0F8481009040091F1
:104E7000B0F84A10009A09040191B0F84C100904E6
:104E80000291E1494C6E121B0092019A8C6E121B2A
:104E90000192029AC96E511A0291816EB0F84400D3
:104EA0006A4680B20BF0CEF93EBDF0B5D64F002475
:104EB0002546D7F894208DB02E46012A01D1C7F897
:104EC000946009A9FFF7CEFF05A80BF041FB0599F7
:104ED00009986022A0EBA130099006990A98A0EBEE
:104EE000A1300A9007990B98A0EBA130C8490B900C
:104EF000081F01F052F80DF1240CC5489CE80E0083
:104F0000143080E80E0068460BF0B6FBC049602202
:104F10006C31081F01F041F8BD489DE80E0080305B
:104F200080E80E0000210922D7F82C04401CC7F8A5
:104F30002C0401EB410007EB8000DDF800C0D0F845
:104F40004C33491C93FBF2F31C44D0F8503309292D
:104F500093FBF2F31D44D0F8543393FBF2F31E4459
:104F6000D0F8B83393FBF2F363440093D0F8BC332A
:104F7000DDF804C093FBF2F363440193D0F8C0035F
:104F8000029B90FBF2F018440290CDDB002C00DA7B
:104F90006442002D00DA6D42002E00DA764200985D
:104FA000002800DA404200900198002800DA4042D0
:104FB00001900298002800DA4042029000990020F7
:104FC0008C4200DA012001998D4200DA401C0299DE
:104FD0008E4200DA401CD7F82C14092900DB401C53
:104FE00004280DD197F8240402280BD901468648DD
:104FF000D7F8282464300CF0C5F801200CF0BCF878
:105000000DB0F0BD0CF0AAF8FAE72DE9F0417E4DA5
:1050100000272DED048B06463C4685F824749FED51
:105020007D9B9FED7E8BC5F8287405EB8400D5ED44
:105030000F0A90ED330AB4EEE00AF1EE10FA1EDB2F
:1050400095ED140B53EC182B51EC100B10F0D4FD14
:1050500041EC100B07F078FA53EC192B51EC100BC4
:1050600010F0DAFA0BD295F824040121401C85F8DF
:105070002404D5F82804A1400843C5F82804641C7A
:10508000E4B2032CD1D395F82404B8B3002406EB82
:10509000C40090ED000B51EC100B10F063FA05EB1F
:1050A0008401641CE4B24866032CF0D3C5F82C7468
:1050B000A868042802DA95F82404A86095F8240466
:1050C00003281BD15749E868884217DC95ED140B7B
:1050D00053EC182B51EC100B10F08EFD41EC100B23
:1050E00007F032FA53EC192B51EC100B10F094FA34
:1050F00004D2A868032801D10420A8604A4928697D
:1051000088421DDA4949E868884219DC95ED140B9C
:1051100053EC182B51EC100B10F06EFD41EC100B02
:1051200007F012FA9FED421B51EC100B53EC112BC0
:1051300010F072FA04D2A868042801D10520A860F2
:10514000BDEC048BBDE8F0812DE9F0412E4C074603
:10515000D4F8A404012802D000252846F2E73649F5
:10516000F7EE000AA1F1E800B7EE000A0646FBF7E9
:10517000B2FA254A3046503202F5AC71FBF74DFDCC
:105180000500EAD06068401C606094ED140B51EC9F
:10519000100B10F0E7F9B96E0BF0B7FC00EE100A37
:1051A000DFED260AB8EEC00A20EE200A10EE100A43
:1051B00010F00CFEC4E9140194ED6A0B51EC100BD5
:1051C00010F0D0F9A06594ED6C0B51EC100B10F0C1
:1051D000C9F9E06594ED6E0B51EC100B10F0C2F9BB
:1051E000206694ED680B9FED161B51EC100B53ECF1
:1051F000112B10F0F3FBB0D231469FED130AF0EE05
:10520000400A23E000401CC6D0E9002000401C46B4
:1052100020ED00209A9999999999B93F00000000D2
:105220000000F03FAE47E13D00007A43BC74933C80
:105230009CC420B07268913F98EB0020000080373A
:10524000000000000070A740CDCCCC3E0846FBF724
:1052500042FA82E7D0ED030A90ED040A0021012210
:10526000F4EEC00A0223F1EE10FA12DD90ED051AF9
:10527000F4EEC10AF1EE10FA0BDDB4EEC10A0164DE
:10528000F1EE10FA02DBC0E911237047C0E91132D8
:105290007047B4EEE00AF1EE10FA12DD90ED051A57
:1052A000B4EEC10AF1EE10FA0BDDF4EEC10A0264AD
:1052B000F1EE10FA02DBC0E911137047C0E91131B9
:1052C0007047F4EEC00A0364F1EE10FA02DBC0E9A5
:1052D00011127047C0E911217047002319469FED54
:1052E000FE0AC36400EB8102491C82ED000A82EDD4
:1052F000090A0329F6DB0121C0E91D13704730B507
:1053000004461420A0650A202066002584F8705009
:105310002046FFF7E2FF656530BD70B52DED048BCB
:1053200086B06946FFF79EFD9FEDEC8B1FED3D9A21
:1053300000246E4603AD56F8240000EE100A05EB7B
:105340008400B8EEC00A20EE090A80ED000A20EEC3
:10535000000A10EE100A10F039FD53EC182B0FF074
:10536000B1FE41EC180B641C032CE4DBB0EE480AE0
:10537000F0EE680A08F0ACFADA4EB0EE408AF0EED1
:10538000608A002455F8240010F020FD53EC182BFF
:105390000FF054FF0FF064FE00EE100A06EB8400DD
:1053A00000F58060641CD0ED0C0A032C30EE200A5E
:1053B00080ED0C0AE6DBD6F88404401CC6F88404B1
:1053C0000120C6F8AC0406B0BDEC048B70BD70B50E
:1053D00005462DED028B86B004AA03A968460BF0A2
:1053E000BFFA9FEDBE8B00246E4606EB840090ED65
:1053F000000A20EE000A10EE100A10F0E7FC53EC51
:10540000182B0FF05FFE41EC180B641C032CECDB37
:10541000B0EE480AF0EE680A08F05AFAB0EE408A98
:10542000F0EE608A002456F8240010F0CFFC53EC14
:10543000182B0FF003FF0FF013FE00EE100A05EB20
:105440008400641CD0ED000A032C30EE200A80EDAD
:10545000000AE8DB686D401C68650120E86706B05B
:10546000BDEC028B70BDF0B504460021F7EE001ACA
:105470009FED992A94ED140A04EB8100B8EEC01A4E
:10548000D0ED000A80EE810AB5EEC00AF1EE10FA06
:1054900002DBB0EE401A01E0B1EE401AD0ED060A90
:1054A000F5EEC00AF1EE10FA01DAF1EE600A71EEE3
:1054B000600AC0ED0C0A80ED060A94ED0F1AD0EDDB
:1054C000092A71EE610A00EEA20AC0EE010AC0EDDF
:1054D000090AF5EEC00AF1EE10FA01DAF1EE600AFF
:1054E000C0ED030A491C80ED002A0329C2DB2046D7
:1054F000FFF7B0FEE06CB0F57A7F01DA401CE064A3
:1055000094F8707000210526042303250122206CE5
:10551000062F09D2DFE807F00309102B5237626724
:10552000A267E16484F87020F0BDE06F0128FBD130
:10553000022084F870000DE004EB8000D4ED190A1D
:1055400090ED030AB4EEE00AF1EE10FA04DB84F801
:10555000703031E0A167F0BDD4ED1A0AB4EEE00A74
:10556000F1EE10FA22D934E06267A267F0BD04EBD5
:105570008000D4ED190A90ED030AB4EEE00AF1EED2
:1055800010FAE4DAF0BD04EB8000D4ED1A0A90EDD5
:10559000030AB4EEE00AF1EE10FA07D9006B524E9E
:1055A000B04206D9216EE06C8842EBDB84F8705083
:1055B000DAE784F87030E1646167CBE704EB8000E0
:1055C000D4ED1B0A90ED030AB4EEE00AF1EE10FAF6
:1055D000D8D884F87060E164C6E710B5044600EEE0
:1055E000104AB8EEC00ADFED410A20EE200A9FED16
:1055F000401AC0EE010AB6EE000A20EE800A10EE54
:10560000100A10F0E3FB41EC100B06F091FE9FED49
:10561000391B51EC100B53EC112B10F039F80FF033
:10562000A1FF01462F48C0E9204110BD2DE9F04FF0
:1056300000242DED028B91B0054604940594069448
:10564000C06E44F62061274E884206DBD6F88010F3
:10565000884210D0FFF7C1FF0DE0D6F84823104470
:10566000C6F8480388427DDBE96E814201D0FFF72E
:10567000B4FFC6F84843286BC6F8B0042846FFF7C5
:105680004CFE06F5906003C8814204DB1B48FFF71F
:10569000EAFEC6F88444D6F8A804012802D12846B8
:1056A000FFF703FCD6F8A40401285BD104A80BF093
:1056B00001F89DED040ADDED050A20EE000A00EE7A
:1056C000A00ADDED060A00EEA00A08F03EF986ED1C
:1056D000030ADFED0B0A15E00000000000000000E7
:1056E00000000000D0E90020CDCC4CBD368D274015
:1056F00000247449000000000000D04100EE0020AA
:105700000000804620EE200AC149A146ADF82040A5
:10571000BDEEC00A099110EE100AADF81C00ADF8FC
:105720001E4007A8FDF7BEFA68460BF003F8316F7C
:1057300000980BF0EAF90446716F01980BF0E5F957
:105740000444B16F02980BF0E0F90444F16F039840
:105750000BF0DBF904EB00089DE80F0000240DF1CD
:10576000340A00E0A2E006F170079FEDAA8A87E8FC
:105770000F000DF1280B05EB4407A96E37F8480F11
:1057800000040BF0C2F900EE100A4AF8240006EB00
:105790008400B8EEC00A20EE080A80ED050A3888B9
:1057A00001044BF82410641CE4B2032CE3D39848A2
:1057B0000AA9E8380446FBF75EF83168D6F82803F2
:1057C000884273DB95ED390AD6ED360AB8EEC00A89
:1057D000F5EEC00A20EE080AF1EE10FA05D070EEE0
:1057E000600AF0EEE00AC6ED370A86ED360AB068C8
:1057F000062818D2DFE800F0030303030D249FED11
:10580000860AC82086ED0E0AB7EE000A86ED0F0A5A
:1058100008E09FED820A86ED0E0A9FED810A642062
:1058200086ED0F0A3064288EC005099812D4FDF762
:1058300048F910F0F9FA00EE100A5FED530A11E092
:105840009FED780A86ED0E0A9FED770A322086EDED
:105850000F0AE7E7FDF78FF810F0E6FA00EE100AFE
:10586000DFED720A982180EE201A86ED041A09985D
:1058700000F0FAFBD6F88410414543DA96ED040AAD
:10588000B5EEC00AF1EE10FA3CDDD6ED0E0AB4EE2C
:10589000E00AF1EE10FA35D2316C7068884206DA0F
:1058A0002846FFF751FC002859D00CE056E060492B
:1058B000D6F8B000884206DB2846FFF745FC0028F2
:1058C0004DD0C6F80490002006EB8001401C91EDFD
:1058D000050AC0B281ED2D0A0328F5D3FFF7A5FA1A
:1058E000002006EB8001401C91ED080AD1ED0B0A67
:1058F000C0B2032830EE600A81ED330AF1D34D487F
:10590000FFF783FB002006EB8001401C91ED260A87
:10591000D1ED050AC0B2032830EE600AB0EEC00A2D
:1059200081ED290AEFD396ED290AD6ED2A0A002047
:1059300030EE200AD6ED2B0A30EE200A86ED2C0A36
:1059400006EB8001401C91ED050AC0B281ED260AEC
:105950000328F5D3E821204600F086FB002011B093
:10596000BDEC028BBDE8F08F10B54FF49761324863
:1059700000F07AFB304C0A20206040072067FFF7D8
:1059800043FA04F58660FFF7BAFC2068C4F8800487
:105990009FED2A0A04F580601E2180ED1B0A9FED11
:1059A000280AC4F88C1480ED260A9FED260A80EDA3
:1059B000250A9FED250A80ED270A1920FDF722FC14
:1059C000002010BD012240F25231AFF29F300BF0A7
:1059D000E1BAAFF2A7300BF09BBD10B5FFF7C4FFE3
:1059E000002805D1AFF22300BDE810400BF05ABBF0
:1059F00010BD10B5AFF2CB300BF08AFDAFF23B001B
:105A0000BDE810400BF0AABD0B488068704700004D
:105A100080EC0020000080370080BB4400009643EB
:105A20009A99993F000070423333B33F0050C34707
:105A3000CDCC4C3D78EB0020D0E9002000000042A6
:105A4000CDCCCC3ECDCC4C3F3333333F7047B2F15D
:105A500020030AD5C2F1200301FA02F120FA03F370
:105A600000FA02F041EA0301704700FA03F14FF037
:105A700000007047B2F120030AD5C2F1200320FADA
:105A800002F001FA03F341FA02F140EA0300704721
:105A900041FA03F04FEAE171704710B54C1084EA07
:105AA000530404D54042C1F1000138BF491E1B42D6
:105AB00004D55242C3F1000338BF5B1E00F0FFFA69
:105AC00014F0804F04D04042C1F1000138BF491E9C
:105AD00014F0004F04D05242C3F1000338BF5B1EE4
